:100000000C945C000C9479000C9479000C947900A9
:100010000C9479000C9479000C9479000C9479007C
:100020000C9479000C9479000C9479000C9479006C
:100030000C9479000C9479000C9479000C9479005C
:100040000C9441010C9479000C9479000C94790083
:100050000C9479000C9479000C9479000C9479003C
:100060000C9479000C947900000000080002010053
:100070000003040700000000000000000000000072
:10008000250028002B0000000000240027002A0083
:10009000040404040404040402020202020203032E
:1000A0000303030301020408102040800102040836
:1000B000102001020408102011241FBECFEFD8E049
:1000C000DEBFCDBF11E0A0E0B1E0EAE7F4E002C09E
:1000D00005900D92AA31B107D9F721E0AAE1B1E06C
:1000E00001C01D92A332B207E1F70E948B010C946C
:1000F0003B020C94000090E0FC01EC55FF4F249172
:1001000080579F4FFC018491882399F090E0880FDD
:10011000991FFC01EA57FF4FA591B491FC01E458E7
:10012000FF4F859194918FB7F894EC91E22BEC936B
:100130008FBF089590E0FC01E859FF4F2491FC0126
:10014000EC55FF4F3491FC01E057FF4FE491EE2353
:10015000C9F0222339F0233001F1A8F4213019F13C
:10016000223029F1F0E0EE0FFF1FE458FF4FA59178
:10017000B4918FB7F894EC91611126C030953E236D
:100180003C938FBF08952730A9F02830C9F0243060
:1001900049F7809180008F7D03C0809180008F7728
:1001A00080938000DFCF84B58F7784BDDBCF84B5AB
:1001B0008F7DFBCF8091B0008F778093B000D2CF3E
:1001C0008091B0008F7DF9CF3E2BDACF3FB7F89406
:1001D00080911F0190912001A0912101B0912201F5
:1001E00026B5A89B05C02F3F19F00196A11DB11D92
:1001F0003FBFBA2FA92F982F8827BC01CD01620FCE
:10020000711D811D911D42E0660F771F881F991F88
:100210004A95D1F708958F929F92AF92BF92CF9255
:10022000DF92EF92FF920E94E6004B015C0188EEA4
:10023000C82E83E0D82EE12CF12C0E94E60068192C
:1002400079098A099B09683E734081059105A8F3E5
:1002500021E0C21AD108E108F10888EE880E83E097
:10026000981EA11CB11CC114D104E104F10429F7AA
:10027000FF90EF90DF90CF90BF90AF909F908F90C6
:1002800008951F920F920FB60F9211242F933F9350
:100290008F939F93AF93BF9380911B0190911C010B
:1002A000A0911D01B0911E0130911A0123E0230F8E
:1002B0002D3758F50196A11DB11D20931A01809389
:1002C0001B0190931C01A0931D01B0931E0180910E
:1002D0001F0190912001A0912101B091220101966E
:1002E000A11DB11D80931F0190932001A0932101B6
:1002F000B0932201BF91AF919F918F913F912F9128
:100300000F900FBE0F901F90189526E8230F0296AE
:10031000A11DB11DD2CF789484B5826084BD84B50F
:10032000816084BD85B5826085BD85B5816085BDF0
:1003300080916E00816080936E00109281008091A8
:100340008100826080938100809181008160809330
:100350008100809180008160809380008091B10055
:1003600084608093B1008091B00081608093B00080
:1003700080917A00846080937A0080917A00826014
:1003800080937A0080917A00816080937A008091D6
:100390007A00806880937A001092C10000E011E03A
:1003A000F801C191D1918F01CF3FDC0709F053C013
:1003B00008E011E0F801C191D1918F01CF3FDC0736
:1003C00009F051C00AEE10E023E6E22EF12C30E0F5
:1003D000C32E30E0D32E98E0A92E91E0B92ED0E0C4
:1003E000C0E0F5018081F2E0AF0EB11C98010C2E47
:1003F00002C0359527950A94E2F761E020FF60E09E
:100400000E949A002196C830D10559F70E940B012D
:1004100088E0A82E81E0B82ED0E0C0E0F501808110
:10042000F2E0AF0EB11C97010C2E02C03595279556
:100430000A94E2F761E020FF60E00E949A002196B2
:10044000C830D10559F70E940B01C114D10419F22B
:100450000E940000C0CF8C2F0E947B0060E08C2F98
:100460000E949A009DCF8C2F0E947B0060E08C2F11
:0A0470000E949A009FCFF894FFCF7E
:10047A0009000A000B00FFFF000001000200030050
:0A048A000400050006000700FFFF54
:00000001FF
