:020000021000EC
:10F000000C9446F80C9465F80C9465F80C9465F82B
:10F010000C9465F80C9465F80C9465F80C9465F8FC
:10F020000C9465F80C9465F80C9465F80C9465F8EC
:10F030000C9465F80C9465F80C9465F80C9465F8DC
:10F040000C9465F80C9465F80C9465F80C9465F8CC
:10F050000C9465F80C9465F80C9465F80C9465F8BC
:10F060000C9465F80C9465F80C9465F80C9465F8AC
:10F070000C9465F80C9465F80C9465F80C9465F89C
:10F080000C9465F80C9465F80C9465F811241FBE77
:10F09000CFEFD0E4DEBFCDBF11E0A0E0B1E0E0ED06
:10F0A000F7EF01E00BBF02C007900D92A230B1074D
:10F0B000D9F712E0A2E0B1E001C01D92AD30B10776
:10F0C000E1F70E9474F90C94E6FB0C9400F890911F
:10F0D0000501913019F0923041F008959091C000EF
:10F0E00095FFFCCF8093C60008959091C80095FFCE
:10F0F000FCCF8093CE000895CF93982F959595954A
:10F1000095959595905D8F70C82F8A3044F4C05DB9
:10F11000892F0E9467F88C2FCF910C9467F8C95AF9
:10F12000892F0E9467F88C2FCF910C9467F8CF92AB
:10F13000DF92EF92FF9280910501813061F1823080
:10F1400031F080E0FF90EF90DF90CF900895C12CD8
:10F15000D12C76018091C80087FD16C08FEFC81AA8
:10F16000D80AE80AF80A81E2C81681EAD80687E0D8
:10F17000E806F10478F3E0910201F09103010995AA
:10F180008091C80087FFEACF8091CE00FF90EF907A
:10F19000DF90CF900895C12CD12C76018091C000D2
:10F1A00087FD16C08FEFC81AD80AE80AF80A81E26C
:10F1B000C81681EAD80687E0E806F10478F3E09102
:10F1C0000201F091030109958091C00087FFEACF09
:10F1D0008091C600FF90EF90DF90CF900895CF937D
:10F1E0000E9497F8C82F0E9467F8C13634F4C033E4
:10F1F0000CF0C0538C2FCF910895C7558C2FCF9111
:10F200000895CF930E94EFF8C82F0E94EFF890E185
:10F21000C99F800D1124CF9108952091050181503F
:10F2200060F0213059F02230D1F79091C80097FF5B
:10F23000FCCF9091CE008150A0F708959091C0002E
:10F2400097FFFCCF9091C600EACFCF93C82F0E94C2
:10F2500097F8803279F0809104018F5F80930401E8
:10F26000853011F0CF910895E0910201F0910301F2
:10F27000CF91099484E10E9467F88C2F0E9467F86F
:10F2800080E1CF910C9467F80E9497F8803269F082
:10F29000809104018F5F80930401853009F0089507
:10F2A000E0910201F0910301099484E10E9467F862
:10F2B00080E10C9467F815C02F9A2FEF30E792E0A9
:10F2C000215030409040E1F700C000002F982FEF10
:10F2D00030E792E0215030409040E1F700C000005C
:10F2E00081508111E9CF0895000081E080930501EC
:10F2F0008CE08093C4001092C5001092C00086E09C
:10F300008093C20088E18093C100279A81E02F9A00
:10F310002FEF30E792E0215030409040E1F700C0FD
:10F3200000002F98EFEFF0E722E0E150F04020409E
:10F33000E1F700C00000815051F7DD24D3940E9412
:10F3400097F88033B1F18133B9F1803409F454C0B6
:10F35000813409F45AC0823409F469C0853409F44F
:10F360006CC0803531F1823521F1813511F185355F
:10F3700009F469C0863509F471C0843609F477C090
:10F38000843709F4DDC0853709F438C1863709F4BC
:10F390004AC0809104018F5F80930401853079F623
:10F3A000E0910201F091030109950E9497F88033E2
:10F3B00051F60E9444F9C3CF0E9497F8803249F772
:10F3C00084E10E9467F881E40E9467F886E50E9464
:10F3D00067F882E50E9467F880E20E9467F889E496
:10F3E0000E9467F883E50E9467F880E50E9467F84D
:10F3F00080E10E9467F8A3CF0E9497F88638C8F290
:10F400000E9497F80E9444F99ACF0E9497F880389A
:10F4100009F40DC1813809F40EC1823809F40FC115
:10F42000883909F400C180E00E9425F988CF84E181
:10F430000E940DF90E9444F982CF85E00E940DF9E7
:10F440000E9444F97CCF0E9497F8809306010E94A5
:10F4500097F8809307010E9444F971CF0E9497F8B2
:10F46000803309F4FEC083E00E940DF9DCCF0E94D6
:10F4700097F8809309020E9497F880930802809180
:10F480000C028E7F80930C020E9497F8853409F459
:10F49000F9C08091080290910902892BA1F068E0DF
:10F4A000E62E61E0F62E00E010E00E9497F8F701EA
:10F4B00081937F010F5F1F4F809108029091090295
:10F4C0000817190790F30E9497F8803209F061CF6E
:10F4D00080910C0280FFE6C08091060190910701A7
:10F4E000880F991F909307018093060120910802CD
:10F4F00030910902232BE9F048E0E42E41E0F42E9C
:10F5000000E010E0F70161917F010E94D8FB80913B
:10F5100006019091070101969093070180930601DF
:10F520000F5F1F4F20910802309109020217130745
:10F5300048F384E10E9467F880E10E9467F8FFCEFB
:10F540000E9497F8809309020E9497F8809308021E
:10F55000809106019091070120910C0297FD9EC0B9
:10F560002D7F20930C02880F991F909307018093A1
:10F5700006010E9497F8853409F48AC080910C0234
:10F580008E7F80930C020E9497F8803209F0D7CECC
:10F5900084E10E9467F88091080290910902892B0A
:10F5A00009F43DC000E010E0809106019091070150
:10F5B00016C0FC0184910E9467F880910601909129
:10F5C0000701019690930701809306010F5F1F4F7B
:10F5D00020910802309109020217130700F52091CB
:10F5E0000C0220FD30C021FFE4CFA0E0B0E0119676
:10F5F000ABBFFC0187910E9467F8DFCF0E9497F8AC
:10F60000803209F0C6CE84E10E9467F88EE10E9444
:10F6100067F887E90E9467F885E00E9467F880E153
:10F620000E9467F88CCE83E00E9425F988CE82E0A4
:10F630000E9425F984CE81E00E9425F980CE80E1E8
:10F640000E9425F97CCE0E94D0FB0E9467F8809131
:10F65000060190910701019690930701809306019E
:10F66000B5CF0E9497F80E9497F8182F0E9497F83C
:10F67000112309F489C0113009F48AC085E00E9481
:10F6800025F95DCE80910C02816080930C0201CF40
:10F6900080910C02816080930C0275CF22602093D0
:10F6A0000C0261CF8091070187FD76C010920B029A
:10F6B00080E08BBF8091060190910701880F991F10
:10F6C00090930701809306018091080280FF09C092
:10F6D000809108029091090201969093090280930B
:10F6E0000802F894F999FECF1127E0910601F091F4
:10F6F0000701C8E0D1E08091080290910902103022
:10F7000091F40091570001700130D9F303E00093A8
:10F710005700E8950091570001700130D9F301E1DD
:10F7200000935700E89509901990009157000170D7
:10F730000130D9F301E000935700E8951395103894
:10F7400098F011270091570001700130D9F305E0BE
:10F7500000935700E8950091570001700130D9F3EC
:10F7600001E100935700E8953296029709F0C7CF60
:10F77000103011F00296E5CF112484E10E9467F861
:10F7800080E10E9467F8DBCD8EE10E9425F9D7CD9C
:10F7900087E90E9425F9D3CDD0920B0281E089CF71
:10F7A000F999FECF92BD81BDF89A992780B5089549
:10F7B000262FF999FECF1FBA92BD81BD20BD0FB68D
:10F7C000F894FA9AF99A0FBE01960895F894FFCF2B
:02F7D0008000B7
:040000031000F000F9
:00000001FF
