:10F800000C943E7C0C945B7C0C945B7C0C945B7C39
:10F810000C945B7C0C945B7C0C945B7C0C945B7C0C
:10F820000C945B7C0C945B7C0C945B7C0C945B7CFC
:10F830000C945B7C0C945B7C0C945B7C0C945B7CEC
:10F840000C945B7C0C945B7C0C945B7C0C945B7CDC
:10F850000C945B7C0C945B7C0C945B7C0C945B7CCC
:10F860000C945B7C0C945B7C0C945B7C0C945B7CBC
:10F870000C945B7C0C945B7C0C945B7C11241FBE11
:10F88000CFEFD0E1DEBFCDBF11E0A0E0B1E0EAEA0A
:10F89000FFEF02C005900D92A230B107D9F712E038
:10F8A000A2E0B1E001C01D92AD30B107E1F70E94C6
:10F8B0006A7D0C94D37F0C94007C9091050191306B
:10F8C00019F0923041F008959091C00095FFFCCF5F
:10F8D0008093C60008959091C80095FFFCCF809357
:10F8E000CE000895CF93982F9595959595959595DC
:10F8F000905D8F70C82F8A3044F4C05D892F0E94BC
:10F900005D7C8C2FCF910C945D7CC95A892F0E940D
:10F910005D7C8C2FCF910C945D7CCF92DF92EF9227
:10F92000FF9280910501813061F1823031F080E0F9
:10F93000FF90EF90DF90CF900895C12CD12C7601ED
:10F940008091C80087FD16C08FEFC81AD80AE80A50
:10F95000F80A81E4C81682E4D8068FE0E806F104CC
:10F9600078F3E0910201F091030109958091C800BC
:10F9700087FFEACF8091CE00FF90EF90DF90CF908D
:10F980000895C12CD12C76018091C00087FD16C04E
:10F990008FEFC81AD80AE80AF80A81E4C81682E488
:10F9A000D8068FE0E806F10478F3E0910201F091C7
:10F9B000030109958091C00087FFEACF8091C600BE
:10F9C000FF90EF90DF90CF900895CF930E948D7CB1
:10F9D000C82F0E945D7CC13634F4C0330CF0C05394
:10F9E0008C2FCF910895C7558C2FCF910895CF9329
:10F9F0000E94E57CC82F0E94E57C90E1C99F800DA4
:10FA00001124CF91089520910501815060F021309B
:10FA100059F02230D1F79091C80097FFFCCF909118
:10FA2000CE008150A0F708959091C00097FFFCCFC1
:10FA30009091C600EACFCF93C82F0E948D7C803270
:10FA400079F0809104018F5F80930401853011F07B
:10FA5000CF910895E0910201F0910301CF910994B3
:10FA600084E10E945D7C8C2F0E945D7C80E1CF91BF
:10FA70000C945D7C0E948D7C803269F08091040141
:10FA80008F5F80930401853009F00895E0910201B1
:10FA9000F0910301099484E10E945D7C80E10C9463
:10FAA0005D7C15C02F9A2FEF31EE94E0215030404D
:10FAB0009040E1F700C000002F982FEF31EE94E066
:10FAC000215030409040E1F700C00000815081118A
:10FAD000E9CF0895000081E08093050180E18093E3
:10FAE000C4001092C5001092C00086E08093C2004E
:10FAF00088E18093C100279A81E02F9A2FEF31EEA1
:10FB000094E0215030409040E1F700C000002F9871
:10FB1000EFEFF1EE24E0E150F0402040E1F700C0CB
:10FB20000000815051F7DD24D3940E948D7C8033F6
:10FB3000B1F18133B9F1803409F454C0813409F44E
:10FB40005AC0823409F469C0853409F46CC0803528
:10FB500031F1823521F1813511F1853509F469C022
:10FB6000863509F471C0843609F477C0843709F406
:10FB7000DDC0853709F435C1863709F44AC0809164
:10FB800004018F5F80930401853079F6E0910201D2
:10FB9000F091030109950E948D7C803351F60E94FB
:10FBA0003A7DC3CF0E948D7C803249F784E10E9468
:10FBB0005D7C81E40E945D7C86E50E945D7C82E53F
:10FBC0000E945D7C80E20E945D7C89E40E945D7CF5
:10FBD00083E50E945D7C80E50E945D7C80E10E945F
:10FBE0005D7CA3CF0E948D7C8638C8F20E948D7CFC
:10FBF0000E943A7D9ACF0E948D7C803809F40AC118
:10FC0000813809F40BC1823809F40CC1883909F430
:10FC1000FDC080E00E941B7D88CF84E10E94037DAF
:10FC20000E943A7D82CF85E00E94037D0E943A7D4A
:10FC30007CCF0E948D7C809306010E948D7C8093F6
:10FC400007010E943A7D71CF0E948D7C803309F4B8
:10FC5000EDC083E00E94037DDCCF0E948D7C809309
:10FC600009020E948D7C8093080280910C028E7F95
:10FC700080930C020E948D7C853409F4E8C0809149
:10FC8000080290910902892BA1F068E0E62E61E05C
:10FC9000F62E00E010E00E948D7CF70181937F0139
:10FCA0000F5F1F4F809108029091090208171907F2
:10FCB00090F30E948D7C803209F061CF80910C021C
:10FCC00080FFE2C08091060190910701880F991F83
:10FCD0009093070180930601209108023091090258
:10FCE000232BE9F048E0E42E41E0F42E00E010E0A0
:10FCF000F70161917F010E94C57F8091060190917B
:10FD00000701019690930701809306010F5F1F4F33
:10FD100020910802309109020217130748F384E189
:10FD20000E945D7C80E10E945D7CFFCE0E948D7C04
:10FD3000809309020E948D7C8093080280910601C5
:10FD40009091070120910C0297FD9AC02D7F20937E
:10FD50000C02880F991F90930701809306010E945F
:10FD60008D7C853409F486C080910C028E7F80934F
:10FD70000C020E948D7C803209F0D7CE84E10E9473
:10FD80005D7C209108023091090221153105D1F1E5
:10FD900000E010E080910601909107010CC041FF46
:10FDA0005CC0019690930701809306010F5F1F4F7F
:10FDB0000217130738F540910C0240FFF0CF0E9464
:10FDC000BD7F0E945D7C80910601909107010196A4
:10FDD0009093070180930601209108023091090257
:10FDE000E5CF0E948D7C803209F0C9CE84E10E946B
:10FDF0005D7C8EE10E945D7C86E90E945D7C8AE0EC
:10FE00000E945D7C80E10E945D7C8FCE83E00E9439
:10FE10001B7D8BCE82E00E941B7D87CE81E00E94FD
:10FE20001B7D83CE80E10E941B7D7FCE0E948D7C56
:10FE30000E948D7C182F0E948D7C112309F495C09F
:10FE4000113009F496C08AE00E941B7D6ECE80912D
:10FE50000C02816080930C0212CFFC0184910E94FD
:10FE60005D7C2091080230910902809106019091F9
:10FE7000070197CF80910C02816080930C0279CFAB
:10FE8000226020930C0265CF80910701880F880BB8
:10FE90008D2180930B028091060190910701880FBC
:10FEA000991F90930701809306018091080280FFBB
:10FEB00009C080910802909109020196909309026D
:10FEC00080930802F894F999FECF1127E09106017A
:10FED000F0910701C8E0D1E08091080290910902F9
:10FEE000103091F40091570001700130D9F303E014
:10FEF00000935700E8950091570001700130D9F345
:10FF000001E100935700E89509901990009157007E
:10FF100001700130D9F301E000935700E895139583
:10FF2000103898F011270091570001700130D9F373
:10FF300005E000935700E8950091570001700130EB
:10FF4000D9F301E100935700E8953296029709F042
:10FF5000C7CF103011F00296E5CF112484E10E9442
:10FF60005D7C80E10E945D7CE0CD8EE10E941B7D86
:10FF7000DCCD86E90E941B7DD8CDF999FECF92BDDC
:10FF800081BDF89A992780B50895262FF999FECF5B
:10FF90001FBA92BD81BD20BD0FB6F894FA9AF99AA6
:0AFFA0000FBE01960895F894FFCFFC
:02FFAA008000D5
:040000030000F80001
:00000001FF
