:020000021000EC
:10F000000C943EF80C9450F80C9450F80C9450F872
:10F010000C9450F80C9450F80C9450F80C9450F850
:10F020000C9450F80C9450F80C9450F80C9450F840
:10F030000C9450F80C9450F80C9450F80C9450F830
:10F040000C9450F80C9450F80C9450F80C9450F820
:10F050000C9450F80C9450F80C9450F80C9450F810
:10F060000C9450F80C9450F80C9450F80C9450F800
:10F070000C9450F80C9450F80C9450F811241FBEC6
:10F08000CFEFD0E1DEBFCDBF12E0A0E0B1E001C024
:10F090001D92A930B107E1F70E9468F90C9439FB81
:10F0A0000C9400F89091C00095FFFCCF8093C600AF
:10F0B0000895CF93282F332727FD3095207F3327BE
:10F0C00094E0359527959A95E1F72A3014F0295A5E
:10F0D00001C0205D982F9F70C92F9A3014F0C95A33
:10F0E00001C0C05D822F0E9452F88C2FCF910C94EA
:10F0F00052F8CF92DF92EF92FF922898C12CD12C38
:10F10000760112C08FEFC81AD80AE80AF80A81E01F
:10F11000C81689E0D8068DE3E806F10428F0E091EE
:10F120000001F091010109958091C00087FFEACFAD
:10F13000289A8091C600FF90EF90DF90CF900895BD
:10F14000CF93DF930E9479F8D82F0E9452F80E9443
:10F1500079F8C82F0E9452F8D13614F0D75503C061
:10F16000D0330CF0D053C13614F0C75503C0C033B0
:10F170000CF0C0538C2F90E1D99F800D1124DF91AA
:10F18000CF91089590E007C02091C00027FFFCCFE9
:10F190002091C6009F5F9813F7CF0895CF93C82F93
:10F1A0000E9479F8803251F484E10E9452F88C2F49
:10F1B0000E9452F880E1CF910C9452F880910201A4
:10F1C0008F5F80930201853031F4E0910001F0916E
:10F1D0000101CF910994CF9108950E9479F880326E
:10F1E00031F484E10E9452F880E10C9452F880914D
:10F1F00002018F5F80930201853029F4E0910001C4
:10F20000F091010109940895CF93DF9300D000D0CD
:10F21000CDB7DEB7811101C081E090E037C0289AF8
:10F2200019821A821B821C820CC049815A816B810F
:10F230007C814F5F5F4F6F4F7F4F49835A836B8352
:10F240007C8349815A816B817C8140385E436105B2
:10F25000710558F3289819821A821B821C820CC0EF
:10F2600049815A816B817C814F5F5F4F6F4F7F4F28
:10F2700049835A836B837C8349815A816B817C816A
:10F2800041155A4F6105710558F39F5F9813C7CF19
:10F2900019821A821B821C820BC089819A81AB81E0
:10F2A000BC810196A11DB11D89839A83AB83BC8368
:10F2B00089819A81AB81BC8181159147A240B105BA
:10F2C00060F30F900F900F900F90DF91CF91089502
:10F2D000000094B714BE8091600088618093600044
:10F2E0001092600091FD05C0E0910001F0910101D4
:10F2F000099589E18093C4001092C50088E180934C
:10F30000C10086E08093C2005098589A209A83E00A
:10F310000E9404F981E00E9404F90E9479F8803388
:10F3200009F442C08133E1F40E9479F8803209F097
:10F3300092C184E10E9452F881E40E9452F886E56D
:10F340000E9452F882E50E9452F880E20E9452F830
:10F3500089E40E9452F883E50E9452F880E572C168
:10F36000803439F40E9479F88638F0F00E9479F8F8
:10F370001BC08134A1F40E9479F8803811F482E036
:10F3800003C0813821F481E00E94CEF8C6CF8238D4
:10F3900011F480E1F9CF883951F583E0F5CF82345B
:10F3A00031F484E10E94C2F80E94EDF8B6CF8534B2
:10F3B00011F485E0F7CF8035B9F3813531F40E943F
:10F3C000EDF888E080936000FFCF823569F38535E2
:10F3D00049F40E9479F8809303010E9479F88093A0
:10F3E0000401E2CF863529F484E00E94C2F880E06F
:10F3F000CBCF843609F0BEC00E9479F88093060214
:10F400000E9479F880930502809108028E7F809394
:10F4100008020E9479F8853429F4809108028160FD
:10F420008093080205E011E0F801119281E0E538CF
:10F43000F807D9F745E0E42E41E0F42E05C00E941C
:10F4400079F8F70181937F01970125503140809130
:10F450000502909106022817390788F30E9479F86F
:10F46000803209F0F8C08091080280FD14C01EC0EF
:10F47000F999FECF809103019091040192BD81BD65
:10F48000F80121918F0120BDFA9AF99A0196909383
:10F4900004018093030198012550314080910502B9
:10F4A000909106022817390718F362C08091030172
:10F4B00090910401880F991F909304018093030198
:10F4C0008091050280FF09C080910502909106029B
:10F4D00001969093060280930502F999FECF1127B9
:10F4E000E0910301F0910401C5E0D1E080910502B3
:10F4F00090910602103091F4009157000170013094
:10F50000D9F303E000935700E8950091570001708C
:10F510000130D9F301E100935700E8950990199063
:10F520000091570001700130D9F301E000935700BA
:10F53000E8951395103898F0112700915700017045
:10F540000130D9F305E000935700E895009157008A
:10F5500001700130D9F301E100935700E89532962C
:10F56000029709F0C7CF103011F00296E5CF1124B1
:10F5700084E168C0843709F055C00E9479F880930F
:10F5800006020E9479F8809305020E9479F8909112
:10F590000802853421F49160909308020DC09E7F8B
:10F5A000909308028091030190910401880F991FA4
:10F5B00090930401809303010E9479F8803209F04E
:10F5C000ACCE84E10E9452F800E010E023C08091AC
:10F5D000080280FF0BC0F999FECF80910301909142
:10F5E000040192BD81BDF89A80B507C081FD07C0B6
:10F5F000E0910301F091040184910E9452F88091FE
:10F6000003019091040101969093040180930301FA
:10F610000F5F1F4F8091050290910602081719078E
:10F62000B0F212C08537A1F40E9479F8803299F4C3
:10F6300084E10E9452F88EE10E9452F886E90E940D
:10F6400052F88AE00E9452F880E10E9452F865CE9A
:10F65000863709F4CCCE809102018F5F809302013E
:10F66000853009F05ACEE0910001F0910101099531
:06F6700054CEF894FFCF18
:040000031000F000F9
:00000001FF
