:100000000C9490000C94B8000C94B8000C94B800B8
:100010000C94B8000C94B8000C94B8000C94B80080
:100020000C94B8000C94B8000C94B3030C94250401
:100030000C94B8000C94B8000C94B8000C94B80060
:100040000C94B8000C94B8000C94B8000C94B80050
:100050000C94B8000C94B8000C94B8000C9469038C
:100060000C94B8000C94B8000C94B8000C94B80030
:100070000C94B8000C94B8000C94B8000C94B80020
:100080000C94B8000C94B8000C94B8000C94B80010
:100090000C94B8000C94B8000C94B8000C94B80000
:1000A0000C94B8000C94B8000C94B800080B000233
:1000B0000202010009040000010202000005240000
:1000C0001001052401010104240206052406000193
:1000D0000705810310004009040100020A00000026
:1000E00007050202400000070583024000000403E8
:1000F000090412010002EF02014041233780000190
:100100000102030141726475696E6F204C4C43001B
:1001100041726475696E6F204D6963726F002A07C2
:1001200011241FBECFEFDAE0DEBFCDBF11E0A0E0AB
:10013000B1E0E8E9FEE002C005900D92AE32B107F1
:10014000D9F721E0AEE2B1E001C01D92AD39B207AE
:10015000E1F710E0C0E9D0E004C02197FE010E9461
:100160003F07CF38D107C9F70E9455060C944A07BC
:100170000C940000FC0180919C01811103C08FEF61
:100180009FEF08959FB7F89482E08093E900209153
:10019000F20030E01216130614F421E030E02115CD
:1001A000310559F0289A84E680939B018091F100F3
:1001B00080838091F200882319F09FBFC9010895C0
:1001C0008BE68093E800F9CF8091930181110DC0F7
:1001D00082E080938F0184E08093900110929201DD
:1001E0001092910181E0809393018FE891E008954E
:1001F0003FB7F89480918B0190918C01A0918D0173
:10020000B0918E0126B5A89B05C02F3F19F001962D
:10021000A11DB11D3FBFBA2FA92F982F8827820F8C
:10022000911DA11DB11DBC01CD0142E0660F771FDC
:10023000881F991F4A95D1F708958F929F92AF9288
:10024000BF92CF92DF92EF92FF926B017C010E94EE
:10025000F8004B015C01C114D104E104F104F1F098
:100260000E94F800DC01CB0188199909AA09BB0991
:10027000883E9340A105B10570F321E0C21AD10870
:10028000E108F10888EE880E83E0981EA11CB11CDD
:10029000C114D104E104F10419F7DDCFFF90EF9010
:1002A000DF90CF90BF90AF909F908F900895409136
:1002B00030015091310120912E0130912F014217D0
:1002C0005307B4F49091E8009570E1F39091E80041
:1002D00092FD19C08093F10080913001909131011D
:1002E00001968F739927892B19F48EEF8093E8007C
:1002F000809130019091310101969093310180936A
:10030000300181E0089580E00895CF92DF92EF926E
:10031000FF920F931F93CF93DF931F92CDB7DEB75A
:10032000182F062FE42E862F880F8E5F99830E9448
:10033000570183E00E945701F12EC12E9981D92ED9
:100340008C2D8F19801798F4F601E7FE02C0849176
:1003500001C080810E945701182F80E00E94570140
:100360008123FFEFCF1ADF0A8111EACF01C081E0BC
:100370000F90DF91CF911F910F91FF90EF90DF9041
:10038000CF900895DF92EF92FF920F931F93CF9338
:10039000DF93D82E8A017B01E40EF51EEB01CE150A
:1003A000DF0571F0D7FE03C0FE01849101C0888192
:1003B0000E94570121968111F2CF8FEF9FEF01C06C
:1003C000C801DF91CF911F910F91FF90EF90DF90C7
:1003D00008950F931F93CF93DF931F92CDB7DEB78E
:1003E00082E0898342E450E06CEA70E080E80E9499
:1003F000C2010E94E400DC0112960D911C9113973A
:100400000115110569F0D801ED91FC910280F3818D
:10041000E02DBE016F5F7F4FC801099597FF07C0B0
:1004200089810F90DF91CF911F910F910895F8016D
:1004300000851185E5CF615030F02091F100FC017D
:1004400020830196F8CF289A84E680939B01089533
:10045000CF92DF92EF92FF920F931F93CF93DF9390
:100460006C017A018B01C0E0D0E0CE15DF0589F088
:10047000D8016D918D01D601ED91FC910190F08133
:10048000E02DC6010995892B11F47E0102C0219649
:10049000ECCFC701DF91CF911F910F91FF90EF90AB
:1004A000DF90CF9008957F928F929F92AF92BF92EC
:1004B000CF92DF92EF92FF920F931F93CF93DF9330
:1004C0006C015B017A0180910B01882309F46BC0F8
:1004D00080919C01882309F466C08091340180FFDB
:1004E00005C08091E00082608093E000E70110E0A9
:1004F0000AEF83E0982E90E4792E2AE3822E20974B
:1005000009F448C08FB7F8949092E9009091E80000
:1005100095FF06C09091F200272D291B922F01C054
:1005200090E08FBF91110AC0015009F43CC061E016
:1005300070E080E090E00E941D01E1CF292F30E0C3
:10054000C217D3070CF49C2F8FB7F8949092E90050
:100550002091E80025FF1CC0292F30E0C21BD30BDF
:10056000F501915020F041914093F100FACFA20E95
:10057000B31E112319F08092E80009C09091E800A1
:1005800095FD06C08092E80011E0209709F010E088
:100590008FBFB5CF1111B6CF5D9A84E6809332013B
:1005A0001E141F0444F081E090E0F60193838283DF
:1005B00080E090E001C0C701DF91CF911F910F91C2
:1005C000FF90EF90DF90CF90BF90AF909F908F9073
:1005D0007F900895CF93DF931F92CDB7DEB76983E5
:1005E000DC01ED91FC910280F381E02D41E050E0CF
:1005F000BE016F5F7F4F09950F90DF91CF910895F6
:1006000083E08093E9008091F200882319F08AE367
:100610008093E8000895CF93DF931F92CDB7DEB7A4
:10062000FC018485958597FD05C02FEF3FEF358749
:1006300024870BC0CE0101960E94BA00019719F4DD
:10064000898190E002C08FEF9FEF0F90DF91CF91F3
:1006500008950F931F93CF93DF931F92CDB7DEB70B
:100660008C01FC018485958597FF0EC0CE01019613
:100670000E94BA00019719F4298130E002C02FEFDF
:100680003FEFF80135872487F801848595850F9021
:10069000DF91CF911F910F910895FC01848595857D
:1006A00097FD0BC09FB7F89482E08093E90080919A
:1006B000F2009FBF90E0019608959FB7F89482E002
:1006C0008093E9008091F2009FBF90E008950E941E
:1006D00045071F920F920FB60F9211242F933F934D
:1006E0008F939F93AF93BF938091870190918801DF
:1006F000A0918901B0918A013091860123E0230FF6
:100700002D3720F40196A11DB11D05C026E8230F49
:100710000296A11DB11D20938601809387019093BD
:100720008801A0938901B0938A0180918B019091F7
:100730008C01A0918D01B0918E010196A11DB11D7A
:1007400080938B0190938C01A0938D01B0938E01C7
:10075000BF91AF919F918F913F912F910F900FBEBD
:100760000F901F9018951F920F920FB60F921124A1
:100770008F939F938091E1009091E100937F9093FC
:10078000E10083FF0FC01092E90091E09093EB002D
:100790001092EC0092E39093ED0010929C0198E08F
:1007A0009093F00082FF20C093E09093E900909135
:1007B000F200992319F09AE39093E80090913201A6
:1007C000992339F0909132019150909332019923FD
:1007D00089F190919B01992339F090919B0191505F
:1007E00090939B01992341F184FF10C08091E20016
:1007F0008E7E81608093E2008091E1008F7E809305
:10080000E100809134018E7E806111C080FF16C0AE
:100810008091E2008E7E80618093E2008091E10011
:100820008E7E8093E100809134018E7E8160809382
:10083000340104C05D98CDCF2898D6CF9F918F9179
:100840000F900FBE0F901F9018951F920F920FB62A
:100850000F921124CF92DF92EF92FF920F931F938A
:100860002F933F934F935F936F937F938F939F93B8
:10087000AF93BF93EF93FF93CF93DF93CDB7DEB7E3
:100880006C97DEBFCDBF1092E9008091E80083FF36
:10089000EDC168E0CE0145960E941B0282EF809375
:1008A000E8008D8987FF05C09091E80090FFFCCF9C
:1008B00003C09EEF9093E800982F907609F0C6C091
:1008C0009E892F89188D91110CC0803829F4809150
:1008D00035018093F10002C01092F1001092F100F6
:1008E00048C1422F50E0512B913051F4811141C148
:1008F0004130510509F03DC1809135018D7F0BC01C
:10090000933061F4811135C14130510509F031C195
:10091000809135018260809335012BC1953041F47F
:100920008091E80080FFFCCF20682093E30021C184
:10093000963009F05FC0EB8CFC8C1092E9001092AD
:10094000310110923001123091F510922F01109266
:100950002E010E94E90199E0BE016F5F7F4FDB012C
:10096000E92F1D92EA95E9F799831A8391E09E8316
:1009700090EA98879AEF9987209130013091310160
:10098000275F3F4F3C832B838D831092E9001092A9
:10099000310110923001F0922F01E0922E0149E0D6
:1009A00050E080E00E94C2010E94E901E2C0F092A2
:1009B0002F01E0922E010E94E400DC011296ED90DE
:1009C000FC901397E114F10409F4C0C0D701ED9134
:1009D000FC910480F581E02DBE016B5E7F4FC70165
:1009E0000995009719F00CF0C4C0C7C0F701E08466
:1009F000F184E8CF973009F4C0C0983021F481E049
:100A00008093F100B6C0993009F0B3C0837009F04B
:100A1000B4C0EDE1F1E081E021E036E3908199237B
:100A200061F08093E9002093EB0091919093EC00AA
:100A30003093ED008F5F873089F78EE78093EA006F
:100A40001092EA008F8980939C0193C08B8D9C8DBE
:100A50001092E900109231011092300190932F0111
:100A600080932E01898D811156C08E899D89913A7E
:100A700059F4813209F081C047E050E064E071E050
:100A800080E00E94C20175C0913209F076C08332C5
:100A900089F4888D90E0982F88272F89822BA0E0F9
:100AA000B0E08093000190930101A0930201B09304
:100AB00003015FC0803269F48091E80082FFFCCFBF
:100AC00067E084E091E00E941B028BEF8093E800D6
:100AD00006C0823209F04DC08F8980930B0180914E
:100AE0003301882319F0EEEFFAE002C0E0E0F8E00D
:100AF0008091040190910501A0910601B091070138
:100B0000803B9440A105B10509F07BC080910B01A9
:100B100080FF93C076C00E94E400DC0112960D9124
:100B20001C9113970115110541F1D801ED91FC912C
:100B30000190F081E02DBE016B5E7F4FC8010995E9
:100B4000811117C0F80100851185ECCF113009F42F
:100B50004EC0133091F48F89882309F445C0823048
:100B600081F440E86DE080E191E00E9485018823F6
:100B700021F08EEF8093E80079C081E28093EB0052
:100B800075C0813029F440E86BE084E091E0EDCF5E
:100B9000833099F70E94E400DC011296ED90FC90FE
:100BA00013978E010F5F1F4F6801E114F10479F074
:100BB000D701ED91FC910680F781E02DB801C701C6
:100BC0000995080F111DF701E084F184EECFD801DB
:100BD0001C92F60101900020E9F73197BF016C19D2
:100BE0007D0940E0C601C1CF6EEE70E002C062EF49
:100BF00070E06115710509F2FB01449150E080E855
:100C000040CF0FB6F894A8958091600088618093DA
:100C10006000109260000FBEA895EE3F2AE0F20738
:100C200039F08091FE0A9091FF0A91838083A1CFD1
:100C30001092FF0A1092FE0A9CCFEE3F8AE0F8075E
:100C400031F0808191819093FF0A8093FE0A87E7BB
:100C500097E7918380839BE088E10FB6F894A8958D
:100C6000809360000FBE9093600083CF6C960FB6A8
:100C7000F894DEBF0FBECDBFDF91CF91FF91EF9112
:100C8000BF91AF919F918F917F916F915F914F91A4
:100C90003F912F911F910F91FF90EF90DF90CF9098
:100CA0000F900FBE0F901F901895789484B58260B6
:100CB00084BD84B5816084BD85B5826085BD85B500
:100CC000816085BD80916E00816080936E0010927E
:100CD00081008091810082608093810080918100F9
:100CE000816080938100809180008160809380008A
:100CF0008091910082608093910080919100816049
:100D00008093910080919000816080939000809109
:100D1000C10084608093C1008091C1008260809393
:100D2000C1008091C10081608093C1008091C300A7
:100D300081608093C3008091C00082608093C00076
:100D40008091C20081608093C20080917A008460AB
:100D500080937A0080917A00826080937A008091FB
:100D60007A00816080937A0080917A008068809315
:100D70007A0010929C0110923501109234018091FA
:100D8000D70081608093D70080EA8093D80089B52E
:100D9000806189BD89B5826089BD09B400FEFDCF3F
:100DA00061E070E080E090E00E941D018091D80039
:100DB0008F7C80618093D8008091E000807F809359
:100DC000E0008091E1008E7E8093E1008DE08093D1
:100DD000E200559A209A5D982898EEEFFFE78591FA
:100DE00094918B3F9C4D19F481E0809333018FEFF8
:100DF0009FEF9093430180934201C0910B016AE001
:100E000070E080E090E00E941D01CC23B1F3E091FE
:100E10003601F09137010280F381E02D46E050E089
:100E200063E271E086E391E00995E0913601F0918B
:100E300037010280F381E02D42E050E06AE271E088
:100E400086E391E00995C0E0D0E02097F1F30E949D
:100E50000000FBCFE6E3F1E01382128288EE93E01C
:100E6000A0E0B0E084839583A683B78380E191E01E
:100E7000918380838FEF9FEF958784870895EE0F8E
:100E8000FF1F0590F491E02D099481E090E0F89423
:080E90000C944A07F894FFCF0F
:100E9800FFFFFFFF00E1000000000000000000006D
:100EA800EA0253024D030B032903000300C18081AA
:0E0EB80000000048656C6C6F2E000D0A0000F3
:00000001FF
