:100000000C94D2030C94BA050C94ED030C94ED03FC
:100010000C94ED030C94ED030C94ED030C94ED03A0
:100020000C94ED030C94ED030C94ED030C94ED0390
:100030000C94ED030C94ED030C94ED030C94ED0380
:100040000C94ED030C94ED030C94ED030C94ED0370
:100050000C94ED033A044010121432B6171618042B
:1000600019031A7B030A0C003E0070007100721124
:100070007300A20211007A207B1C7C287D3C7E55F7
:100080007F68807681808288838F849685A386AFFF
:1000900087C488D789E813E0000010000D00142001
:1000A000A505AB072475256326A59F78A068A10345
:1000B000A6DFA7DFA8F0A990AA9413E50E610F4B65
:1000C00016021E37210222912907330B350B371DEB
:1000D0003871392A3C784D404E20690C6B407419B8
:1000E0008D4F8E008F0090009100920096009A80B4
:1000F000B084B10CB20EB382B80A431444F0453454
:1001000046584728483A59885A885B445C675D4995
:100110005E0E640465206605940495086C0A6D55AE
:100120006E116F9F6A400140024013E715004F8037
:10013000508051005222535E5480589E41083F0027
:10014000750576E14C0077013DC24B09C9CC4138B9
:10015000564034113B02A48996009730982099307C
:100160009A849B299C039D4C9E3F78047901C8F09A
:10017000790FC8007910C87E790AC880790BC80148
:10018000790CC80F790DC8207909C8807902C8C0D8
:100190007903C8407905C8307926090355005640CF
:1001A0003B420000000000000000000000000000D2
:1001B000000000000000000000000000000000003F
:1001C0000000000000000000183C3C3C181800181B
:1001D00018000000000000006666660000000000D5
:1001E000000000000000000036367F3636367F36CD
:1001F00036000000000018183C666030180C0666D7
:100200003C18180000000070D8DA760C18306E5BCD
:100210001B0E000000000000386C6C38606F6666D2
:100220003B0000000000000018181800000000004B
:1002300000000000000000000C1818303030303092
:1002400018180C00000000003018180C0C0C0C0CD6
:1002500018183000000000000000361C7F1C36001B
:100260000000000000000000000018187E181800B0
:1002700000000000000000000000000000001C1C46
:100280000C180000000000000000007E00000000CC
:1002900000000000000000000000000000001C1C26
:1002A0000000000000000006060C0C18183030603A
:1002B000600000000000001E333737333B3B331E25
:1002C000000000000000000C1C7C0C0C0C0C0C0C42
:1002D000000000000000003C6666060C1830607EDE
:1002E000000000000000003C6666061C0666663CD6
:1002F000000000000000003030363636667F06060B
:10030000000000000000007E6060607C06060C7843
:10031000000000000000001C18307C666666663C29
:10032000000000000000007E060C0C181830303071
:10033000000000000000003C6666763C6E66663C8D
:10034000000000000000003C666666663E0C18383F
:100350000000000000000000001C1C0000001C1C2D
:100360000000000000000000001C1C0000001C1C1D
:100370000C180000000000060C18306030180C0645
:10038000000000000000000000007E007E00000071
:10039000000000000000006030180C060C183060EF
:1003A000000000000000003C66660C1818001818D9
:1003B000000000000000007EC3C3CFDBDBCFC07FA6
:1003C00000000000000000183C6666667E666666F7
:1003D000000000000000007C6666667C6666667C45
:1003E000000000000000003C666660606066663CDD
:1003F00000000000000000786C66666666666C7837
:10040000000000000000007E6060607C6060607E34
:10041000000000000000007E6060607C6060606042
:10042000000000000000003C666660606E66663E8C
:1004300000000000000000666666667E666666660E
:10044000000000000000003C181818181818183C8C
:100450000000000000001E0C0C0C0C0CCCCCCC7866
:100460000000000000000066666C6C786C6C6666CC
:100470000000000000000060606060606060607EFE
:10048000000000000000006363776B6B6B636363C5
:10049000000000000000006363737B6F67636363A9
:1004A000000000000000003C666666666666663C0A
:1004B000000000000000007C6666667C6060606092
:1004C000000000000000003C666666666666663CEA
:1004D0000C0600000000007C6666667C6C66666642
:1004E000000000000000003C666030180C06663C0E
:1004F000000000000000007E1818181818181818BE
:100500000000000000000066666666666666663C7F
:1005100000000000000000666666666666663C18BD
:10052000000000000000006363636B6B6B363636BF
:100530000000000000000066663418182C6666662D
:1005400000000000000000666666663C1818181877
:10055000000000000000007E06060C183060607E7F
:10056000000000000000003C3030303030303030CF
:1005700030303C000000006060303018180C0C0671
:10058000060000000000003C0C0C0C0C0C0C0C0CC9
:100590000C0C3C0000183C6600000000000000004D
:1005A000000000000000000000000000000000004B
:1005B0000000FF000038180C0000000000000000E0
:1005C0000000000000000000003C06063E66663E9B
:1005D0000000000000000060607C66666666667C65
:1005E0000000000000000000003C66606060663CA7
:1005F0000000000000000006063E66666666663E75
:100600000000000000000000003C66667E60603C68
:10061000000000000000001E3030307E30303030EE
:100620000000000000000000003E66666666663E50
:1006300006067C0000000060607C66666666666692
:100640000000000000001818007818181818187E0C
:100650000000000000000C0C003C0C0C0C0C0C0CFE
:100660000C0C7800000000606066666C786C666652
:100670000000000000000078181818181818187EDC
:100680000000000000000000007E6B6B6B6B6B6372
:100690000000000000000000007C6666666666667A
:1006A0000000000000000000003C66666666663CD4
:1006B0000000000000000000007C66666666667C44
:1006C0006060600000000000003E66666666663E90
:1006D000060606000000000000666E706060606044
:1006E0000000000000000000003E60603C06067C48
:1006F0000000000000000030307E30303030301E0E
:100700000000000000000000006666666666663E47
:1007100000000000000000000066666666663C1887
:10072000000000000000000000636B6B6B6B36364E
:1007300000000000000000000066663C183C666691
:100740000000000000000000006666666666663C09
:100750000C18F00000000000007E060C1830607ECF
:10076000000000000000000C181818306030181845
:10077000180C00000000001818181818181818187D
:1007800018181800000000301818180C060C18185B
:100790001830000000000071DB8E00000000000037
:1007A0000000000011241FBECFE5D8E0DEBFCDBFA2
:1007B00011E0A0E6B0E0ECE3FBE202C005900D9290
:1007C000A032B107D9F711E0A0E2B1E001C01D925B
:1007D000A835B107E1F70C94E7070C94000087B344
:1007E000866087BB88B3866088BB0895C29A84E61A
:1007F00090E00E94D610C19A84E690E00E94D61044
:10080000C29884E690E00E94D610C19884E690E0F9
:100810000E94D6100895C29884E690E00E94D610F7
:10082000C19A84E690E00E94D610C29A84E690E0D5
:100830000E94D6100895C29A84E690E00E94D610D5
:10084000C19A84E690E00E94D610C19884E690E0B8
:100850000E94D610C29884E690E00E94D6100895B7
:100860000F931F93CF93DF93082FC0E0D0E017E0E2
:10087000802F99270C2E02C0880F991F0A94E2F747
:1008800087FF02C0C29A01C0C29884E690E00E942D
:10089000D610C19A84E690E00E94D610C19884E6F2
:1008A00090E00E94D6101150219617FFE1CF84E608
:1008B00090E00E94D610BA9884E690E00E94D6108C
:1008C000C19A88EE93E00E94D610B29B02C0C0E0AD
:1008D00001C0C1E0C19884E690E00E94D610BA9AA7
:1008E0008C2F9927DF91CF911F910F9108951F931E
:1008F000CF93C0E0BA9884E690E00E94D61018E04A
:1009000084E690E00E94D610C19A84E690E00E94AE
:10091000D610CC0FB299CF5FC19884E690E00E94C8
:10092000D610115069F7BA9A8C2F9927CF911F9141
:1009300008951F93CF93C82F162F0E94F60382E4C9
:100940000E943004882391F084E690E00E94D61043
:100950008C2F0E943004882349F084E690E00E94A6
:10096000D610812F0E943004882329F40E940B04A2
:1009700080E090E004C00E940B0481E090E0CF9101
:100980001F9108950F931F93CF93C82F8B010E943F
:10099000F60382E40E9430048823B1F084E690E0FC
:1009A0000E94D6108C2F0E943004882369F00E9488
:1009B0000B0484E690E00E94D6100E94F60383E4C4
:1009C0000E943004882329F40E940B0480E090E008
:1009D0000EC084E690E00E94D6100E947704F801D1
:1009E00080830E941B040E940B0481E090E0CF9161
:1009F0001F910F910895AF92BF92CF92DF92EF9225
:100A0000FF920F931F93CF93DF93CDB7DEB722975B
:100A10000FB6F894DEBF0FBECDBF7C015B018A012B
:100A20000E0D1F1D6B01C20ED31EC20ED31EBE01C2
:100A30006F5F7F4F83E00E94C2048981807F89833A
:100A4000BE016E5F7F4F82E30E94C2049A81907C58
:100A50009A83802F8770880F880F880F982B8E2D90
:100A60008770982B692F82E30E94990488EF97E0A2
:100A7000E822F92233E0F694E7943A95E1F76E2DF7
:100A800087E10E949904087F177023E01695079567
:100A90002A95E1F7602F88E10E9499049C2D9370BC
:100AA000990F990F8981892B9A2D9370892B682F23
:100AB00083E00E949904B694A794B694A7946A2DF3
:100AC00089E10E949904D694C794D694C7946C2D5A
:100AD0008AE10E94990422960FB6F894DEBF0FBEF9
:100AE000CDBFDF91CF911F910F91FF90EF90DF90DD
:100AF000CF90BF90AF9008950F931F93CF93DF9344
:100B0000C0E0D0E00E94EF0360E882E10E94990417
:100B1000882329F4CE0120C080E090E01DC08AE047
:100B200090E00E94DC10CC5ADF4F8E010F5F1F4F08
:100B3000F8018491FE019491682F892F0E949904F5
:100B4000882351F30E5F1F4F2296F1E0C23BDF076F
:100B500079F370F381E090E0DF91CF911F910F91D5
:100B600008958FB780688FBF85B7826085BF80E4A6
:100B70008BBF08951F920F920FB60F9211242F93DF
:100B80003F934F935F936F937F938F939F93AF9315
:100B9000BF93CF93EF93FF93F894859B0DC0809103
:100BA00020018F5F80932001809120018536A0F085
:100BB00084E68093200110C080912001863060F08F
:100BC00080912101882319F01092210103C081E056
:100BD0008093210110922001C0912101CC23C9F5FD
:100BE000C098969A8FEF84BB6FEE70E080E290E041
:100BF0000E94301160E070E081E290E00E943011CC
:100C000060E070E080E590E00E9430116FEE70E0EF
:100C100081E590E00E94301160E070E082E590E0B4
:100C20000E9430116FE371E083E590E00E94301183
:100C300068E270E183E090E00E94301182E290E08F
:100C40000E940E11C4BBDE9AC39AC09A9698DD9892
:100C500002C0C098969A7894FF91EF91CF91BF917E
:100C6000AF919F918F917F916F915F914F913F9144
:100C70002F910F900FBE0F901F9018952F923F92BB
:100C80004F925F926F927F928F929F92AF92BF929C
:100C9000CF92DF92EF92FF920F931F93CF93DF9348
:100CA000CDB7DEB7E7970FB6F894DEBF0FBECDBF66
:100CB00071E0672E712C2224332481E088ABB101CE
:100CC00080E590E00E9430116FEE70E081E590E0E9
:100CD0000E943011B10182E590E00E9430116FE373
:100CE00071E083E590E00E943011809122019091A3
:100CF00023019E01205F3F4F892BD1F430922501C3
:100D000020922401AE01405D5F4F64E271E0C901B1
:100D10000E942D0F8BAB809124019091250190931F
:100D2000230180932201709225016092240109C061
:100D3000AE01405D5F4F64E271E0C9010E942D0F7A
:100D40008BAB8AA59BA56C01EE24FF248CA19DA1F1
:100D5000AA27BB27DC0199278827C80ED91EEA1EBF
:100D6000FB1E20EF29AB1FAA1EAA55245AAA80E019
:100D700092E00E9475144C012224332480912E01AC
:100D800090912F012816390608F0D6C09401A101D0
:100D9000C701B6010E94A80B2114310471F48AA97D
:100DA000882359F4F4018285682E7724448C469474
:100DB00046944694F1E0FAAB02C06624772420E022
:100DC000621622E0720608F0B3C05301A80CB91CE9
:100DD00083E0481619F5852D99278130910581F01A
:100DE000823091051CF4892B21F06AC0029799F09A
:100DF00067C0F501808186958695869599275EC0A6
:100E0000F501808186958695992755E0880F991F71
:100E10005A95E1F753C0F501808147C0F2E04F16C3
:100E200089F4852D9927009709F1019709F048C0A9
:100E3000F5018081082F1127102F0027FBA98F2F84
:100E400099273CC024E04216E1F5852D9927813091
:100E5000910581F0823091051CF4892B39F030C066
:100E60008230910559F0039769F02AC0F501F081AD
:100E7000FBAB26C0F501F081FCAB22C0F501F0818F
:100E8000FDAB1EC08BA98695869586959927082B64
:100E9000192B8CA986958695992735E0880F991F7F
:100EA0003A95E1F7082B192B8DA98695869586959D
:100EB0009927982F8827990F990F990F082B192B8D
:100EC00053940894611C711C0894A11CB11C541407
:100ED00049F58FEE90E029A9821B9109BC0180E2BF
:100EE00090E00E9430116EA97FA981E290E00E94FB
:100EF000301182E290E00E940E11C8010E94F010B1
:100F000000E010E08EA99FA901969FAB8EAB8054A4
:100F1000914038F0F9A9F150F9ABFF23E1F11FAB93
:100F20000EAB552420E0621622E0720608F450CF82
:100F30000894211C311C22CFC4010E940F15C70147
:100F4000B6010E94E60B6B017C0180E092E00E94FA
:100F500075144C018FEFC8168FEFD8068FEFE80697
:100F60008FE0F806C1F098EFC9169FEFD9069FEF02
:100F7000E9069FE0F90679F080914701882309F09E
:100F8000FBCEEFEFCE16EFEFDE06E0E0EE06E0E0A0
:100F9000FE0609F0F1CEC4010E940F15E7960FB6C8
:100FA000F894DEBF0FBECDBFDF91CF911F910F919F
:100FB000FF90EF90DF90CF90BF90AF909F908F9079
:100FC0007F906F905F904F903F902F900895CFE566
:100FD000D8E0DEBFCDBFFF24CF2DB89A8E9A8D9872
:100FE000959AC098969A88EB9BE00E94DC108FEF50
:100FF00084BB0E947E110E94BF0800E010E020E048
:1010000038EF40E650E066E970E084E190E00E944D
:10101000881320EE37E046E750E06AEA70E084E1AA
:1010200090E00E94881380B399278C0100721070A1
:1010300085FF27C000E010E02FE130E04BE950E0F1
:101040006EEB70E084E190E00E9488130E947C05C2
:101050008130E1F700E010E020E038EF4DEA50E0A9
:101060006EEB70E084E190E00E94881388EE93E0DC
:101070000E94DC10C8010E943B1114BA0E94B10505
:1010800044C0E1E0FE2E2FE130E04FEB50E009C01C
:10109000CF5FC53160F000E010E02FE130E042EDBD
:1010A00050E06EEB70E084E190E00E9488130E94B3
:1010B0000409C53110F480FDEBCF00E010E02FE112
:1010C00030E045EE50E06EEB70E084E190E00E948D
:1010D00088132FE130E048EF50E062ED70E084E1EA
:1010E00090E00E9488130E94980A8823E1F70E94EA
:1010F000BB0E00E010E02FE130E047E051E062ED90
:1011000070E084E190E00E948813FF20F1F30E94D8
:101110003E0680E29EE40E94DC1080E29EE40E9493
:10112000DC102091240130912501809122019091C1
:1011300023012817390738F42F5F3F4F30932501DB
:1011400020932401E2CF81E090E0909325018093E9
:101150002401DBCF83E58DB97098089580E58DB9C2
:10116000709A0895D49A87B3806A87BB0E94AA08B0
:1011700008958FB9779BFECF8FB1992708950E946C
:10118000B208DC9A0895CF92DF92EF92FF920F930C
:101190001F93CF93D82E7A018B01CC248FEF0E941E
:1011A000B908DC988D2D80640E94B908812F992799
:1011B000AA27BB270E94B908C801AA27BB270E94FB
:1011C000B908BB27A12F902F8F2D0E94B9088E2D13
:1011D0000E94B90885E90E94B90802C0C39431F0A1
:1011E0008FEF0E94B908C82F8F3FC1F3DC9A8FEFB1
:1011F0000E94B9088C2F9927CF911F910F91FF90D2
:10120000EF90DF90CF9008951F93CF9310E00E944E
:10121000AA08C9E08FEF0E94B908C150C7FFFACFF2
:1012200040E050E060E070E080E00E94C3081F5F93
:101230001F3F69F0813069F710E040E050E060E066
:1012400070E081E00E94C3081F5F1F3F19F481E036
:1012500090E014C0882389F70E94AE0840E050E077
:1012600060E070E08BE30E94C30840E052E060E081
:1012700070E080E10E94C30880E090E0CF911F9170
:1012800008950F931F93CF93DF93DC01CB018A0165
:10129000C0E0D0E039E0880F991FAA1FBB1F3A9524
:1012A000D1F7AC01BD0181E10E94C308882331F070
:1012B000992724C0DC9A81E090E020C0DC9802C02D
:1012C0002196C1F38FEF0E94B9088E3FC9F7CFEF87
:1012D000D1E08FEF0E94B908F80181938F01219727
:1012E000D7FFF7CF8FEF0E94B9088FEF0E94B908A0
:1012F000DC9A8FEF0E94B90880E090E0DF91CF91F7
:101300001F910F910895EF92FF920F931F93CF9328
:10131000DF93DC01CB018A01EE24FF2449E0880F32
:10132000991FAA1FBB1F4A95D1F7AC01BD0188E1E7
:101330000E94C308882311F099273FC0DC988FEFE3
:101340000E94B9088FEF0E94B9088FEF0E94B90878
:101350008EEF0E94B908CFEFD1E0F80181918F01A3
:101360000E94B9082197D7FFF8CF8FEF0E94B908E4
:101370008FEF0E94B9088FEF0E94B908282F3327FA
:10138000C9018F719070059769F0DC9AC90115C089
:10139000DC9A81E090E011C00894E11CF11CE1149A
:1013A000F104B1F38FEF0E94B9088823A9F3DC9A06
:1013B0008FEF0E94B90880E090E0DF91CF911F91FC
:1013C0000F91FF90EF900895AF92BF92CF92DF926E
:1013D000EF92FF920F931F93CF93DF93CDB7DEB7BA
:1013E00060970FB6F894DEBF0FBECDBF00E010E0EF
:1013F00040E050E060E070E089E00E94C308682FA0
:10140000882351F077278827992781C0DC9A61E0EB
:1014100070E080E090E07BC0DC9803C00F5F1F4F5E
:10142000A9F38FEF0E94B9088E3FC1F7EE24FF2485
:101430008E010F5F1F4F0E0D1F1D8FEF0E94B90809
:10144000F80180830894E11CF11CF0E1EF16F1042F
:1014500078F38FEF0E94B9088FEF0E94B9088FEFE1
:101460000E94B908DC9A8FEF0E94B9088F81E82E9C
:10147000FF2483E0E822FF24FE2CEE248885E80E7A
:10148000F11CEE0CFF1CEE0CFF1C8985992766E011
:10149000969587956A95E1F7E80EF91E6A8563705F
:1014A000660F8B859927880F892F881F990B919537
:1014B000680F6E5F21E030E0662321F0220F331FBA
:1014C0006150FACF0894E11CF11CC701AA27BB2781
:1014D00044275527BC01CD010E946B155B016C01AF
:1014E0008E81E82EFF24EFE0EE22FF2421E030E0A1
:1014F000E114F10431F0220F331F0894E108F108E0
:10150000F7CF44275527C601B5010E946B15609699
:101510000FB6F894DEBF0FBECDBFDF91CF911F9104
:101520000F91FF90EF90DF90CF90BF90AF90089514
:101530008F929F92AF92BF92CF92DF92EF92FF92E3
:101540000F931F93CF93DF93CDB7DEB7C050D24038
:101550000FB6F894DEBF0FBECDBFAA24BB24650131
:101560000E94E4097B018C018FEFE816F10401056C
:10157000110508F449C0E0911801F0911901AE017C
:101580004F5F5F4FC601B50109958823E9F54E010C
:101590000894811C911CFE01E154FE4FA084B1848B
:1015A000C284D38499E016950795F794E7949A95A9
:1015B000D1F7AE14BF04C006D10620F0AA24BB2484
:1015C00065011CC0E0911801F0911901A401C60148
:1015D000B50109958823C1F48981893E79F08B3E54
:1015E00069F0AA24BB246501E0911801F09119016A
:1015F000A401C601B5010995882331F4F401808165
:10160000893E29F08B3E19F081E090E08DC0F40115
:101610003B9683859485892B69F0109247018385D9
:101620009485909349018093480182E090E0A0E086
:10163000B0E00DC081E080934701818D928D909341
:1016400049018093480181A192A1A3A1B4A18093F3
:10165000500190935101A0935201B09353018081A6
:10166000918190934F0180934E01828199279093AD
:101670002F0180932E01838194819C01442755275B
:101680002A0D3B1D4C1D5D1D209334013093350107
:10169000409336015093370186819781AA27BB2753
:1016A00080932A0190932B01A0932C01B0932D01DC
:1016B0007C018D0184E016950795F794E7948A954F
:1016C000D1F7E0924A01F0924B0100934C01109344
:1016D0004D018581682F77278091480190914901BC
:1016E000689FF001699FF00D789FF00D1124CF01E4
:1016F000AA27BB27820F931FA41FB51F8093260123
:1017000090932701A0932801B09329018E0D9F1D6E
:10171000A01FB11F8093300190933101A09332013B
:10172000B093330180E090E0C050DE4F0FB6F894E4
:10173000DEBF0FBECDBFDF91CF911F910F91FF9004
:10174000EF90DF90CF90BF90AF909F908F900895D3
:10175000EF92FF920F931F93DC01CB018A01790175
:101760000297A109B10920912E0130912F01442740
:101770005527BC01CD010E946B159B01AC018091E6
:10178000300190913101A0913201B0913301820F6B
:10179000931FA41FB51F980144275527820F931F3D
:1017A000A41FB51FE0911801F0911901A701BC0118
:1017B000CD010995882319F081E090E002C080E016
:1017C00090E01F910F91FF90EF900895EF92FF929C
:1017D0000F931F93CF93DF93CDB7DEB7C050D240A6
:1017E0000FB6F894DEBF0FBECDBF7B018C01809198
:1017F0004701882351F0A801970167E05695479566
:10180000379527956A95D1F704C05527412F302F7A
:101810002F2D82E0E816F10401051105C0F080913A
:10182000340190913501A0913601B0913701820FBA
:10183000931FA41FB51FE0911801F0911901AE018B
:101840004F5F5F4FBC01CD010995882329F068EFF8
:101850007FEF8FEF9FE02FC0809147019E012F5FA8
:101860003F4F8823A1F08FE790E0A0E0B0E0E822AE
:10187000F9220A231B23F701EE0FFF1FEE0FFF1FB4
:10188000E20FF31F608171818281938114C08FEF19
:1018900090E0A0E0B0E0E822F9220A231B23F70140
:1018A000EE0DFF1DE20FF31F808191819C01442703
:1018B0005527CA01B901C050DE4F0FB6F894DEBFFC
:1018C0000FBECDBFDF91CF911F910F91FF90EF9091
:1018D0000895CF93DF93EC01FB019C01AB0197E0EE
:1018E000DA018D91AD01D9018D939D01915097FF42
:1018F000F7CF9E01285F3F4FAF01485F5F4F92E0F7
:10190000DA018D91AD01D9018D939D01915097FF21
:10191000F7CF83858B8784858C8785858D879E010E
:10192000225F3F4FAF01425F5F4F91E0DA018D913F
:10193000AD01D9018D939D01915097FFF7CF9E0185
:10194000205F3F4FAF01405F5F4F91E0DA018D9123
:10195000AD01D9018D939D01915097FFF7CF9E0165
:101960002E5E3F4FAF014E5E5F4F91E0DA018D91E9
:10197000AD01D9018D939D01915097FFF7CF8489D7
:1019800095899D8B8C8B9E012A5E3F4FAF014A5EED
:101990005F4F91E0DA018D91AD01D9018D939D01E9
:1019A000915097FFF7CF9E01285E3F4FAF01485EF1
:1019B0005F4F91E0DA018D91AD01D9018D939D01C9
:1019C000915097FFF7CF828D938D9B8F8A8F848D57
:1019D000958DA68DB78D8C8F9D8FAE8FBF8FDF912C
:1019E000CF910895EF92FF920F931F93FC01872FE1
:1019F0009927AA27BB27DF01082E0E9492159F0175
:101A00002F5F3F4F7B0100271127D9010E2C0E9429
:101A100092159F012E5F3F4FE52EF62E072F1127BF
:101A2000D9010E2C0E949215DF011396042E0E94FC
:101A300092151F910F91FF90EF900895DC010E9485
:101A40008A15202D332744275527542F432F322F13
:101A50002227DC0111960E948A15602D260F311D68
:101A6000411D511D542F432F322F2227DC01129686
:101A70000E948A15602D260F311D411D511D542FC6
:101A8000432F322F2227DC0113960E948A15802DC6
:101A9000280F311D411D511DCA01B90108953F9202
:101AA0004F925F926F927F928F929F92AF92BF926E
:101AB000CF92DF92EF92FF920F931F93CF93DF931A
:101AC0007B018C012A01611571058105910509F0E1
:101AD0008BC0D0904701DD2009F086C080E092E005
:101AE0000E947514EC01892B09F47BC03D2C809178
:101AF0004A0190914B01A0914C01B0914D01E81623
:101B0000F9060A071B0708F065C08091260190912D
:101B10002701A0912801B0912901830D911DA11DDC
:101B2000B11DE0911801F0911901AE01BC01CD0188
:101B30000995882309F052C066247724FE01E60D3A
:101B4000F71D80818E3251F1882341F1853E31F1BC
:101B5000838584FF23C0D2010D911C91B2E0003037
:101B60001B0709F4F4C0828D938D9C0144275527EF
:101B700084899589AA27BB27DC0199278827280F04
:101B8000391F4A1F5B1FBA01A901C8010E94F20C4C
:101B9000F2018081918104969183808380E290E0BC
:101BA000680E791E90E0691692E0790638F2339457
:101BB000232D33274427552780914A0190914B01CB
:101BC000A0914C01B0914D01281739074A075B07D6
:101BD00008F49BCFCE010E940F15B9C0CE010E9420
:101BE0000F1581E090E0B5C057016801AEEFEA2E15
:101BF000AFEFFA2EAFEF0A2FAFEF1A2FEA0CFB1C54
:101C00000C1D1D1D80912E0190912F019C014427D8
:101C10005527C801B7010E946B15DC01CB01E0908C
:101C20003001F09031010091320110913301E80E42
:101C3000F91E0A1F1B1F80E092E00E947514EC0140
:101C4000892B79F2332480912E0190912F01892BD9
:101C500009F458C0D801C701830D911DA11DB11D04
:101C6000E0911801F0911901AE01BC01CD01099577
:101C7000882309F0B3CF66247724FE01E60DF71D13
:101C800080818E3259F1882349F1853E39F183856F
:101C900084FF24C0D2018D909C90B0E08B16B2E0FE
:101CA0009B0609F454C0828D938D9C0144275527CF
:101CB00084899589AA27BB27DC0199278827280FC3
:101CC000391F4A1F5B1FBA01A901C4010E94F20C0F
:101CD000F2018081918104969183808380E290E07B
:101CE000680E791E90E0691692E0790630F233941E
:101CF000232D332780912E0190912F01281739072A
:101D000008F4A8CFCE010E940F15C601B5010E94AC
:101D1000E60B5B016C016F3FAFEF7A07AFEF8A070D
:101D2000AFE09A07A1F0685F7F4F8F4F9F4079F037
:101D300080914701882309F059CFEFEFAE16EFEFFE
:101D4000BE06E0E0CE06E0E0DE0609F04FCF80E020
:101D500090E0DF91CF911F910F91FF90EF90DF9076
:101D6000CF90BF90AF909F908F907F906F905F903B
:101D70004F903F9008950F931F93CF93DF93CDB76C
:101D8000DEB722970FB6F894DEBF0FBECDBF00E0DE
:101D900010E080914701882371F08091500190916B
:101DA0005101A0915201B0915301AC01BD0107C096
:101DB00080E090E047C040E050E060E070E0C801A3
:101DC0000E94F20C04E010E04FEF5FEF6FEF7FEF47
:101DD000C8010E94F20C1A83098300E010E0C801D8
:101DE0000E941E0D6F3F2FEF72072FEF82072FEF1C
:101DF0009207F1F2AE014F5F5F4F0E944F0D898154
:101E00009A810E941E0DDC01CB018F5F9F4FAF4F67
:101E1000BF4F41F04FEF5FEF6FEF7FEF89819A8106
:101E20000E94F20C89819A8122E08030920719F099
:101E30000C5F1F4FD4CF4FEF5FEF6FEF7FEF049733
:101E40000E94F20C22960FB6F894DEBF0FBECDBFF3
:101E5000DF91CF911F910F9108952F923F925F9242
:101E60006F927F928F929F92AF92BF92CF92DF92AA
:101E7000EF92FF920F931F93CF93DF93CDB7DEB70F
:101E800029970FB6F894DEBF0FBECDBF9D838C831C
:101E90007F836E83FA012224332480819927813045
:101EA000910519F0029789F016C082E489838DE4C8
:101EB0008A8380E50FC0C6010E940F1581E090E083
:101EC0005DC1C6010E940F1557C182E4898389E470
:101ED0008A838EE48B8319861886888599850E946B
:101EE0001E0D7B018C0188859985049699878887CA
:101EF0009FEFE9169FEFF9069FEF09079FEF19077C
:101F000009F432C1E114F1040105110509F07DC0A5
:101F1000B0904701BB2009F078C080E092E00E94B9
:101F200075146C01892B51F25B2C80914A019091C0
:101F30004B01A0914C01B0914D01E816F9060A073A
:101F40001B0708F05EC08091260190912701A091A7
:101F50002801B0912901850D911DA11DB11DE091B0
:101F60001801F0911901A601BC01CD010995882342
:101F700009F0A1CF66247724F601E60DF71D8081D4
:101F80008E3219F1882309F1853EF9F083858F306F
:101F9000E1F0908589819817C1F491858A8198171D
:101FA000A1F492858B81981781F4BF018C819D816A
:101FB0000E94690C0894211C311CEE81FF818081F4
:101FC00091812816390609F47CCF80E290E0680EF2
:101FD000791E90E0691692E0790670F25394252DEF
:101FE00033274427552780914A0190914B01A091B6
:101FF0004C01B0914D01281739074A075B0708F4D7
:10200000A2CFC6010E940F1568CF470158017EEF8D
:10201000E72E7FEFF72E7FEF072F7FEF172FE80CCC
:10202000F91C0A1D1B1D80912E0190912F019C010E
:1020300044275527C801B7010E946B15DC01CB016D
:10204000E0903001F09031010091320110913301A4
:10205000E80EF91E0A1F1B1F80E092E00E94751413
:102060006C01892B09F42ACF552480912E0190917F
:102070002F01892B09F450C0D801C701850D911D8E
:10208000A11DB11DE0911801F0911901A601BC013B
:10209000CD010995882309F00ECF66247724F60137
:1020A000E60DF71D80818E3219F1882309F1853EF6
:1020B000F9F083858F30E1F0908589819817C1F41C
:1020C00091858A819817A1F492858B81981781F464
:1020D000BF018C819D810E94690C0894211C311CD8
:1020E000EE81FF81808191812816390609F4E9CEBD
:1020F00080E290E0680E791E90E0691692E0790621
:1021000070F25394252D332780912E0190912F0149
:102110002817390708F4B0CFC6010E940F15C50172
:10212000B4010E94E60B4B015C016F3FEFEF7E07AD
:10213000EFEF8E07EFE09E0709F4CFCE685F7F4F89
:102140008F4F9F4009F4C9CE80914701882309F041
:102150005ECF8FEF88168FEF980680E0A80680E0AC
:10216000B80609F054CFB9CEEE81FF81808191810C
:10217000892B11F43182208280E090E029960FB6FD
:10218000F894DEBF0FBECDBFDF91CF911F910F91AD
:10219000FF90EF90DF90CF90BF90AF909F908F9087
:1021A0007F906F905F903F902F90089501972FEF51
:1021B0008F3F9207D9F70895CF93DF93EC012197D2
:1021C0008FEFCF3FD80749F084E690E00E94D61009
:1021D00021978FEFCF3FD807B9F7DF91CF910895BF
:1021E0000F931F938C01DF9ADE9ADD98812F992738
:1021F00085BBC39A81E090E00E94D610C39805BBCE
:10220000C39A81E090E00E94D61081E090E00E94A5
:10221000D610C398DD9A1F910F9108950F931F93C5
:102220008C01DF9ADE98DD98812F992785BBC39AB0
:1022300081E090E00E94D61081E090E00E94D610EC
:10224000C39805BBC39A81E090E00E94D61081E05C
:1022500090E00E94D610C398DD9A1F910F910895C7
:102260000F931F938B010E940E11C8010E94F01062
:102270001F910F910895CF93DF93EC0160E070E020
:1022800080E290E00E94301160E070E081E290E036
:102290000E94301160E070E080E590E00E94301113
:1022A0006FEE70E081E590E00E94301160E070E038
:1022B00082E590E00E9430116FE371E083E590E0E9
:1022C0000E94301182E290E00E940E11DF9ADE9AA5
:1022D000DD982D2F33278FEF9BE2A1E0B0E0C39A6A
:1022E00025BBC398C39AC5BBC3980197A109B1097F
:1022F000B7FFF5CFDD9ADF91CF9108958F9AD59AE8
:10230000D69ABB9AD79A8C9A949880ED97E00E94BF
:10231000DC10949A60E070E885EE90E00E94301145
:1023200061E070E080E090E00E94301188EC90E085
:102330000E94DC1060E070E081E090E00E943011CB
:1023400060E077E082E090E00E94301168E170E1A7
:1023500083E090E00E94301160E070E084E090E063
:102360000E94301164E074E088E090E00E94301137
:1023700060E070E089E090E00E94301160E070E081
:102380008AE090E00E94301160E070E08CE090E024
:102390000E94301160E070E08DE090E00E9430110A
:1023A00060E070E08FE090E00E94301160E070E04B
:1023B00080E190E00E94301160E070E081E190E007
:1023C0000E94301160E070E082E190E00E943011E4
:1023D00060E070E083E190E00E94301188EE93E0CD
:1023E0000E94DC1060E975E180E190E00E9430110C
:1023F00067E373E081E190E00E94301188EE93E0A2
:102400000E94DC1068E270E082E190E00E943011EE
:1024100088EE93E00E94DC1060E076E183E190E0DA
:102420000E9430116AE270E089E290E00E9430116F
:102430006DE070E08BE290E00E94301188EE93E056
:102440000E94DC1060E070E080E290E00E943011B9
:102450006FE371E081E290E00E94301161E071E091
:1024600080E390E00E94301166E075E081E390E047
:102470000E94301161E071E082E390E00E9430112F
:1024800064E072E085E390E00E94301167E077E05D
:1024900086E390E00E94301167E077E087E390E008
:1024A0000E94301166E074E088E390E00E943011F1
:1024B00067E077E089E390E00E94301162E074E029
:1024C0008CE390E00E94301167E077E08DE390E0CC
:1024D0000E94301160E070E080E590E00E943011D1
:1024E0006FEE70E081E590E00E94301160E070E0F6
:1024F00082E590E00E9430116FE371E083E590E0A7
:102500000E94301160E077E280E690E00E94301196
:1025100061E070E081E690E00E94301160E070E0E0
:102520008AE690E00E94301160E170E080E990E07E
:102530000E94301160E070E082E990E00E9430116A
:1025400063E070E083E990E00E94301160E171E0A7
:1025500085E990E00E94301160E070E087E990E04A
:102560000E94301160E070E088E990E00E94301134
:1025700084EF91E00E94DC1063E771E087E090E077
:102580000E94301180E090E00E943B1184EF91E0C6
:102590000E94DC10979A0895BF92CF92DF92EF923B
:1025A000FF920F931F93CF93B82E6B017A0182E2B3
:1025B00090E00E940E1100E0EB2DFF2734E0EE0FBB
:1025C000FF1F3A95E1F7E00FF11DEC54F040C49184
:1025D00017E0C7FF02C0C60101C0C7010E94F0108A
:1025E000CC0F115017FFF5CF0F5F003128F3CF91BB
:1025F0001F910F91FF90EF90DF90CF90BF900895C3
:102600000F931F938B01BC0180E290E00E94301178
:10261000B80181E290E00E9430111F910F9108955E
:10262000AF92BF92CF92DF92EF92FF920F931F93E0
:102630008C015B016A017901E61AF70A87E391E0F0
:10264000E80EF91EB701C8010E940013B80180E529
:1026500090E00E9430110C0D1D1D01501040B8017A
:1026600081E590E00E94301188E391E08A199B098E
:10267000BC0182E590E00E943011B70183E590E053
:102680000E9430111F910F91FF90EF90DF90CF903B
:10269000BF90AF900895BF92CF92DF92EF92FF92DA
:1026A0000F931F93CF93FB01B42E6901780128E0AB
:1026B00030E04FE050E0BC01CF010E94101382E2F5
:1026C00090E00E940E1100E0EB2DFF2744E0EE0F9A
:1026D000FF1F4A95E1F7E00FF11DEC54FD4FC49147
:1026E00017E0C7FF02C0C60101C0C7010E94F01079
:1026F000CC0F115017FFF5CF0F5F003128F3CF91AA
:102700001F910F91FF90EF90DF90CF90BF900895B1
:10271000AF92BF92CF92DF92EF92FF920F931F93EF
:10272000CF93DF93FC015B017A016901DA018C919F
:102730008823A9F0EF0128E030E04FE050E0BE012F
:10274000C5010E941013A801B601F70181917F0114
:102750000E94CC122896D7018C91882361F7DF91D3
:10276000CF911F910F91FF90EF90DF90CF90BF908E
:10277000AF900895EF92FF920F931F938B017A0110
:10278000BC0180E290E00E943011B80181E290E04B
:102790000E94301182E290E00E940E11C7010E9457
:1027A000F0101F910F91FF90EF900895AF92BF929C
:1027B000CF92DF92EF92FF920F931F9360E070E051
:1027C00080E290E00E94301160E070E081E290E0F1
:1027D0000E943011EE24FF24870160E070E080E564
:1027E00090E00E9430116FEE70E081E590E00E9471
:1027F000301160E070E082E590E00E9430116FE3FC
:1028000071E083E590E00E94301182E290E00E9446
:102810000E115FEFA52E5BE2B52E51E0C52ED12C37
:10282000E114F1040105110521F48FE190E00E940B
:10283000F01081E0E816F1040105110521F480E0B3
:1028400098EF0E94F01082E0E816F10401051105EE
:1028500021F480EE97E00E94F01083E0E816F10486
:102860000105110521F48FEF97E00E94F01084E03C
:10287000E816F1040105110521F48FE198EF0E949B
:10288000F01085E0E816F1040105110521F480EE51
:102890009FEF0E94F01086E0E816F1040105110593
:1028A00021F480E090E00E94F0100894A108B108A3
:1028B000C108D108D7FEB4CF84E690E00E94DC10B6
:1028C0000894E11CF11C011D111D87E0E816F104BC
:1028D0000105110508F481CF1F910F91FF90EF9032
:1028E000DF90CF90BF90AF900895CF93DF93AC016E
:1028F000029710F442E050E020E030E0A091560151
:10290000B0915701BD01F901109709F44CC08D91A8
:102910009C9111978417950731F14817590738F49E
:102920002115310519F08217930708F49C01FD0168
:10293000A281B381109759F721153105A1F1C90181
:10294000841B950B049708F4A901DB01E0E0F0E09B
:10295000109749F18D919C91119782179307F9F483
:102960004217530779F4ED018A819B81309719F062
:102970009383828304C09093570180935601CD01C5
:1029800002964AC0241B350BFD01E20FF31F419351
:102990005193225030402D933C93CF013DC0FD0117
:1029A000A281B381D5CF8091540190915501892B9B
:1029B00041F480911C0190911D01909355018093E9
:1029C0005401E0911A01F0911B01309741F4EDB7E9
:1029D000FEB780911E0190911F01E81BF90BA09199
:1029E0005401B09155019F012A1B3B0B2417350759
:1029F00088F0CA0102962817390760F0CD01840FCC
:102A0000951F029690935501809354014D935D93C9
:102A1000CD0102C080E090E0DF91CF910895CF9387
:102A2000DF93009709F454C0DC011297ED011B827B
:102A30001A828091560190915701009721F1FC0173
:102A400040E050E0EA17FB0718F1ED01FB83EA8351
:102A50002D913C911197C20FD31FCE0102968E1774
:102A60009F0771F48A819B81280F391F2E5F3F4F8A
:102A700011963C932E9382819381FD0193838283EF
:102A80004115510559F4B0935701A093560120C048
:102A9000AF010280F381E02D3097A1F6EA01BB83FC
:102AA000AA83CA01029628813981820F931F8A174F
:102AB0009B0771F48D919C911197280F391F2E5F00
:102AC0003F4F39832883FD01828193819B838A83D1
:102AD000DF91CF910895629FD001739FF001829F93
:102AE000E00DF11D649FE00DF11D929FF00D839F9D
:102AF000F00D749FF00D659FF00D9927729FB00D3A
:102B0000E11DF91F639FB00DE11DF91FBD01CF014C
:102B100011240895E199FECFBFBBAEBBE09A119698
:102B20000DB20895E199FECFBFBBAEBB0DBA1196B1
:0C2B30000FB6F894E29AE19A0FBE0895E7
:102B3C004775616E66755F77616E67202032303144
:102B4C0031303431320041746D6567613332202687
:102B5C0020494C493933323820464F52204F563792
:102B6C0036373020524556342E32004F56373637D2
:102B7C003020496E69742E2E2E2E2E2E004F563775
:102B8C0036373020496E69742020304B2020005499
:102B9C0046204361726420496E69742E2E2E2E2EAF
:102BAC002E005446204361726420496E69742E2EA7
:102BBC002E2E4E47005446204361726420496E69A4
:102BCC00742E2E2E2E4F4B0046415420496E6974A4
:102BDC002E2E2E2E2E2E0046415420496E69742E18
:102BEC002E2E2E4F4B008309410900005801200066
:00000001FF
