:100000000C9474000C9495000C9495000C9495003D
:100010000C9495000C9495000C9495000C9495000C
:100020000C9495000C9495000C9495000C949500FC
:100030000C9495000C9495000C9495000C949500EC
:100040000C9495000C9495000C9495000C949500DC
:100050000C9495000C9495000C9495000C949500CC
:100060000C9495000C94FC000C9495000C94950055
:100070000C9495000C9495000C9495000C949500AC
:100080000C9495000C9495000C9495000C9495009C
:100090000C947B010C94A6010C9495000C94950093
:1000A0000C9495000C9495000C9495000C9495007C
:1000B0000C9495000C9495000C9495000C9495006C
:1000C0000C9495000C9495000C9495000C9495005C
:1000D0000C9495000C9495000C9495000C9495004C
:1000E0000C9495000C94E80011241FBECFEFD1E2D0
:1000F000DEBFCDBF00E00CBF12E0A0E0B2E0E6E55D
:10010000F5E000E00BBF02C007900D92AE33B107DF
:10011000D9F723E0AEE3B2E001C01D92AA38B207DE
:10012000E1F70E941A020C94A9020C94000080933B
:10013000C4009093C50086E08093C200E0ECF0E03C
:1001400080818260808388E18093C1000895E1EC22
:10015000F0E08081806880830895E1ECF0E08081A8
:100160008F77808308959091C00095FFFCCF809396
:10017000C60008958091C00085FB882780F9089506
:10018000DC019091030380910203981779F0E091CC
:100190000203F0E0EC5FFC4F8081909102039F5FCF
:1001A0009F77909302038C9381E0089580E00895F7
:1001B000CF93DF930F92CDB7DEB7CE0101960E94A9
:1001C000C0008115D1F389810F90DF91CF910895FF
:1001D000CF93DF930F92CDB7DEB789838A3019F4BE
:1001E0008DE00E94B30089810E94B30080E090E01E
:1001F0000F90DF91CF9108952F932FB72F932BB7A7
:100200002F938F939F93EF93FF932091C60080913C
:1002100003038F5F8F7790910203981306C090912C
:1002200002039F5F9F7790930203E0910303F0E046
:10023000EC5FFC4F208380930303FF91EF919F912C
:100240008F912F912BBF2F912FBF2F9118958091B8
:10025000030390910203891B8F7708958093CC004C
:100260009093CD0086E08093CA00E8ECF0E08081B6
:100270008260808388E18093C9000895E9ECF0E012
:100280008081806880830895E9ECF0E080818F7739
:1002900080830895DC0190918102809180029817FB
:1002A00081F0E0918002F0E0EE57FD4F8081909167
:1002B00080029F5F9F77909380028C9381E090E013
:1002C000089580E090E00895CF93DF930F92CDB72B
:1002D000DEB7CE0101960E944A01892BD1F38981B4
:1002E0000F90DF91CF9108958091810290918002CB
:1002F000891B8F7708952F932FB72F932BB72F93A9
:100300008F939F93EF93FF932091CE008091810272
:100310008F5F8F7790918002981306C09091800232
:100320009F5F9F7790938002E0918102F0E0EE570B
:10033000FD4F208380938102FF91EF919F918F91D8
:100340002F912BBF2F912FBF2F9118958F938FB780
:100350008F938BB78F939F93EF93FF9390913E0270
:1003600080913F029817B9F0E0913E02F0E0E05C26
:10037000FD4F80818093CE0080913E028F5F8F730E
:1003800080933E02FF91EF919F918F918BBF8F9150
:100390008FBF8F9118958091C9008F7D8093C90080
:1003A000F1CF8091C80085FB882780F9089590914E
:1003B0003F029F5F9F7320913E02291779F0E091E1
:1003C0003F02F0E0E05CFD4F808390933F0280911C
:1003D000C90080628093C90080E008958FEF08957E
:1003E000CF93DF930F92CDB7DEB7898389810E94C7
:1003F000D701811104C00F90DF91CF91089587EC50
:1004000090E00197F1F700C00000F0CFCF93DF93A9
:100410000F92CDB7DEB789838A3019F48DE00E9440
:10042000F00189810E94F00180E090E00F90DF915F
:10043000CF91089500D0CDB7DEB780E190E00E9463
:10044000970080E092E0809386039093870387E68D
:1004500090E00E942E010E94A7000E943E01789425
:100460008EE092E00E947A0286E292E00E947A0296
:100470007E018FEFE81AF80A01E4C7010E94C0006C
:10048000EA82FB828115A9F089810E94F00119811D
:10049000C12ED12CC6010E946A02892B39F0C601F7
:1004A0000E9472028A3579F4098311E4812F0E9437
:1004B000B3008A819B810E944A01892BF1F28981D4
:1004C0000E94B300DACF11E0180F1983EFCF85FD3A
:1004D0000C94A602806291110C94A60281568A5156
:1004E000D8F708959111089581568A5108F48052E1
:1004F000855808950F931F93CF93DF93E091860360
:10050000F0918703238100E010E021FD0EC00FEF82
:100510001FEFC801DF91CF911F910F910895199599
:10052000892B11F00FEF1FEFCE01EC018991609143
:10053000860370918703DB011896ED91FC91811180
:10054000EECF8AE01995892B21F3E1CF99278827EF
:060550000895F894FFCFAE
:100556000000000200000000E80000000000415416
:100566006D6567613235363020555341525430201F
:10057600746573740D0048656C6C6F20626F7973D7
:0E05860020616E64206769726C73210D0000A5
:00000001FF
