:100000000C9474000C9495000C9495000C9495003D
:100010000C9495000C9495000C9495000C9495000C
:100020000C9495000C9495000C9495000C949500FC
:100030000C9495000C9495000C9495000C949500EC
:100040000C9495000C9495000C9495000C949500DC
:100050000C9495000C9495000C9495000C949500CC
:100060000C9495000C941C010C9495000C94950034
:100070000C9495000C9495000C9495000C949500AC
:100080000C9495000C9495000C9495000C9495009C
:100090000C9495000C9495000C9495000C9495008C
:1000A0000C9495000C9495000C9495000C9495007C
:1000B0000C9495000C9495000C9495000C9495006C
:1000C0000C9495000C9495000C9495000C9495005C
:1000D0000C9495000C9495000C9495000C9495004C
:1000E0000C9495000C940E0111241FBECFEFD1E2A9
:1000F000DEBFCDBF00E00CBF12E0A0E0B2E0E0EE5A
:10010000F3E000E00BBF02C007900D92A632B107EA
:10011000D9F722E0A6E2B2E001C01D92AE3AB207E2
:10012000E1F70E947D010C94EE010C940000CF9346
:10013000DF9300D00F92CDB7DEB79B01AC0184E016
:10014000220F331F441F551F8A95D1F760E074E2D8
:1001500084EF90E00E94A001215031092093C50056
:100160002093C40086E08093C20088E18093C100A0
:100170000F900F900F900F90DF91CF910895E1ECC9
:10018000F0E08081806880830895E1ECF0E0808178
:100190008F77808308959091C00095FFFCCF809366
:1001A000C60008958091C00085FB882780F90895D6
:1001B000DC019091270280912602981781F0E0914E
:1001C0002602F0E0E85DFD4F9081809126028F5F6E
:1001D0008F77809326029C9381E090E0089590E0D1
:1001E00080E00895CF93DF930F92CDB7DEB7CE01B5
:1001F00001960E94D800892BD1F389810F90DF915D
:10020000CF910895CF93DF93EC018991811103C0C1
:10021000DF91CF9108950E94CB00F7CFCF93C82FE5
:100220008A3019F48DE00E94CB008C2F0E94CB0005
:1002300090E080E0CF9108952F932FB72F932BB7A5
:100240002F938F939F93EF93FF932091C6008091FC
:1002500027028F5F8F7790912602981306C09091A6
:1002600026029F5F9F7790932602E0912702F0E09D
:10027000E85DFD4F208380932702FF91EF919F91CE
:100280008F912F912BBF2F912FBF2F911895809178
:10029000270290912602891B8F770895CF93DF93D1
:1002A00000D00F92CDB7DEB79B01AC0184E0220FE6
:1002B000331F441F551F8A95D1F760E074E284EF25
:1002C00090E00E94A001215031093093CD0020938D
:1002D000CC0086E08093CA0088E18093C9000F902B
:1002E0000F900F900F90DF91CF9108959091C800DB
:1002F00095FFFCCF8093CE0008950F92CDB7DEB767
:1003000060E071EE80E090E00E94970080E092E073
:100310009093AB028093AA020E94BF0078948EE073
:1003200092E00E94C201CE0101960E94D800892B62
:10033000D1F389810E94CB0089810E94CB00F3CF49
:10034000A1E21A2EAA1BBB1BFD010DC0AA1FBB1FD9
:10035000EE1FFF1FA217B307E407F50720F0A21B4B
:10036000B30BE40BF50B661F771F881F991F1A94B8
:1003700069F760957095809590959B01AC01BD01E2
:10038000CF0108950F931F93CF93DF93E091AA02BB
:10039000F091AB02238110E000E021FD0EC00FEFD1
:1003A0001FEFC801DF91CF911F910F91089519950B
:1003B000892B11F00FEF1FEFCE01EC0189916091B5
:1003C000AA027091AB02DB011896ED91FC918111AC
:1003D000EECF8AE01995892B21F3E1CFF894FFCF76
:1003E00000000002000000000E0100000000415467
:1003F0006D65676132353630205553415254302097
:06040000746573740D0029
:00000001FF
