:100000000C9474000C9495000C9495000C9495003D
:100010000C9495000C9495000C9495000C9495000C
:100020000C9495000C9495000C9495000C949500FC
:100030000C9495000C9495000C9495000C949500EC
:100040000C9495000C9495000C9495000C949500DC
:100050000C9495000C9495000C9495000C949500CC
:100060000C9495000C94F6000C9495000C9495005B
:100070000C9495000C9495000C9495000C949500AC
:100080000C9495000C9495000C9495000C9495009C
:100090000C9475010C94A0010C9495000C9495009F
:1000A0000C9495000C9495000C9495000C9495007C
:1000B0000C9495000C9495000C9495000C9495006C
:1000C0000C9495000C9495000C9495000C9495005C
:1000D0000C9495000C9495000C9495000C9495004C
:1000E0000C9495000C94E80011241FBECFEFD1E2D0
:1000F000DEBFCDBF00E00CBF12E0A0E0B2E0E4E262
:10010000F5E000E00BBF02C007900D92AE33B107DF
:10011000D9F723E0AEE3B2E001C01D92AA38B207DE
:10012000E1F70E9408020C9490020C940000809366
:10013000C4009093C50086E08093C200E0ECF0E03C
:1001400080818260808388E18093C1000895E1EC22
:10015000F0E08081806880830895E1ECF0E08081A8
:100160008F77808308959091C00095FFFCCF809396
:10017000C60008958091C00085FB882780F9089506
:10018000DC019091030380910203981779F0E091CC
:100190000203F0E0EC5FFC4F9081809102038F5FDF
:1001A0008F77809302039C9381E0089580E0089507
:1001B000CF93DF930F92CDB7DEB7CE0101960E94A9
:1001C000C0008823D1F389810F90DF91CF910895EA
:1001D000CF93C82F8A3019F48DE00E94B3008C2F82
:1001E0000E94B30090E080E0CF9108952F932FB745
:1001F0002F932BB72F938F939F93EF93FF93209180
:10020000C600809103038F5F8F779091020398134C
:1002100006C0909102039F5F9F7790930203E09145
:100220000303F0E0EC5FFC4F208380930303FF9116
:10023000EF919F918F912F912BBF2F912FBF2F91D6
:1002400018958091030390910203891B8F7708957D
:100250008093CC009093CD0086E08093CA00E8ECB8
:10026000F0E080818260808388E18093C9000895F6
:10027000E9ECF0E08081806880830895E9ECF0E0AB
:1002800080818F7780830895DC0190918102809135
:100290008002981781F0E0918002F0E0EE57FD4F68
:1002A0009081809180028F5F8F77809380029C93F2
:1002B00081E090E0089590E080E00895CF93DF938F
:1002C0000F92CDB7DEB7CE0101960E944401892B73
:1002D000D1F389810F90DF91CF91089580918102B0
:1002E00090918002891B8F7708952F932FB72F93BA
:1002F0002BB72F938F939F93EF93FF932091CE0073
:10030000809181028F5F8F7790918002981306C051
:10031000909180029F5F9F7790938002E09181028D
:10032000F0E0EE57FD4F208380938102FF91EF9123
:100330009F918F912F912BBF2F912FBF2F911895A8
:100340008F938FB78F938BB78F939F93EF93FF9379
:1003500090913E0280913F029817B9F0E0913E02E1
:10036000F0E0E05CFD4F80818093CE0080913E0202
:100370008F5F8F7380933E02FF91EF919F918F91DA
:100380008BBF8F918FBF8F9118958091C9008F7D02
:100390008093C900F1CF8091C80085FB882780F940
:1003A000089590913F029F5F9F7320913E0229170D
:1003B00079F0E0913F02F0E0E05CFD4F80839093A4
:1003C0003F028091C90080628093C90080E0089557
:1003D0008FEF0895CF93C82F8C2F0E94D1018111E8
:1003E00002C0CF91089587EC90E00197F1F700C02B
:1003F0000000F2CFCF93C82F8A3019F48DE00E940D
:10040000EA018C2F0E94EA0190E080E0CF910895EC
:100410000F92CDB7DEB780E190E00E94970080E0B8
:1004200092E0909387038093860387E690E00E9492
:1004300028010E94A7000E94380178948EE092E083
:100440000E94610286E292E00E94610281E4F82E3D
:10045000CE0101960E94C000882399F089810E94F4
:10046000EA01098110E0C8010E945102892B31F094
:10047000C8010E9459028A3571F4F98289810E946B
:10048000B300CE0101960E944401892B09F38981B2
:100490000E94B300DDCF8F5F8983F0CF85FD0C9480
:1004A0008D02806291110C948D0281568A51D8F789
:1004B00008959111089581568A5108F48052855803
:1004C00008950F931F93CF93DF93E0918603F091EC
:1004D0008703238110E000E021FD0EC00FEF1FEF26
:1004E000C801DF91CF911F910F9108951995892B24
:1004F00011F00FEF1FEFCE01EC018991609186039F
:1005000070918703DB011896ED91FC918111EECF7C
:100510008AE01995892B21F3E1CF9927882708953F
:04052000F894FFCF7D
:100524000000000200000000E80000000000415448
:100534006D65676132353630205553415254302051
:10054400746573740D0048656C6C6F20626F797309
:0E05540020616E64206769726C73210D0000D7
:00000001FF
