:100000000C9474000C9495000C9495000C9495003D
:100010000C9495000C9495000C9495000C9495000C
:100020000C9495000C9495000C9495000C949500FC
:100030000C9495000C9495000C9495000C949500EC
:100040000C9495000C9495000C9495000C949500DC
:100050000C9495000C9495000C9495000C949500CC
:100060000C9495000C94FF000C9495000C94950052
:100070000C9495000C9495000C9495000C949500AC
:100080000C9495000C9495000C9495000C9495009C
:100090000C9495010C9495000C9495000C9495008B
:1000A0000C9495000C9495000C9495000C9495007C
:1000B0000C9495000C9495000C9495000C9495006C
:1000C0000C9495000C9495000C9495000C9495005C
:1000D0000C9495000C9495000C9495000C9495004C
:1000E0000C9495000C94F10011241FBECFEFD1E2C7
:1000F000DEBFCDBF00E00CBF12E0A0E0B2E0E8E759
:10010000F4E000E00BBF02C007900D92AE33B107E0
:10011000D9F723E0AEE3B2E001C01D92A834B207E4
:10012000E1F70E94C0010C943A020C940000809305
:10013000C4009093C50086E08093C20088E180935C
:10014000C1000895E1ECF0E080818068808308952B
:10015000E1ECF0E080818F77808308959091C0007A
:1001600095FFFCCF8093C60008958091C00085FB69
:10017000882780F90895DC019091C1028091C00226
:10018000981781F0E091C002F0E0EE53FD4F9081AE
:100190008091C0028F5F8F778093C0029C9381E033
:1001A00090E0089590E080E00895CF93DF930F9260
:1001B000CDB7DEB7CE0101960E94BB00892BD1F3EB
:1001C00089810F90DF91CF910895CF93DF93EC0158
:1001D0008991811103C0DF91CF9108950E94AE00F3
:1001E000F7CFCF93C82F8A3019F48DE00E94AE006C
:1001F0008C2F0E94AE0090E080E0CF9108952F9365
:100200002FB72F932BB72F938F939F93EF93FF933A
:100210002091C6008091C1028F5F8F779091C002BC
:10022000981306C09091C0029F5F9F779093C00281
:10023000E091C102F0E0EE53FD4F20838093C102B4
:10024000FF91EF919F918F912F912BBF2F912FBFF6
:100250002F9118958091C1029091C002891B8F77D0
:1002600008958093CC009093CD0086E08093CA00DF
:1002700088E18093C9000895E9ECF0E0808180680E
:1002800080830895E9ECF0E080818F778083089582
:100290009091C80095FFFCCF8093CE0008950C94F8
:1002A000B500DC0190913F0280913E02981781F0E9
:1002B000E0913E02F0E0E05CFD4F908180913E02D3
:1002C0008F5F8F7780933E029C9381E090E008954A
:1002D00090E080E00895CF93DF930F92CDB7DEB723
:1002E000CE0101960E945101892BD1F389810F9093
:1002F000DF91CF910895CF93DF93EC018991811124
:1003000003C0DF91CF9108950E944801F7CFCF93AA
:10031000C82F8A3019F48DE00E9448018C2F0E946A
:10032000AE0090E080E0CF9108952F932FB72F93E8
:100330002BB72F938F939F93EF93FF932091CE0032
:1003400080913F028F5F8F7790913E02981306C095
:1003500090913E029F5F9F7790933E02E0913F0213
:10036000F0E0E05CFD4F208380933F02FF91EF912E
:100370009F918F912F912BBF2F912FBF2F91189568
:100380000F92CDB7DEB780E190E00E94970080E049
:1003900092E0909345038093440387E690E00E94A7
:1003A00031010E94A20078948EE092E00E940B023C
:1003B00086E292E00E940B0281E4F82ECE010196C3
:1003C0000E94BB00892BD1F3098110E0C8010E9473
:1003D000FB01892B31F0C8010E9403028A3529F400
:1003E000F98289810E94AE00E9CF8F5F8983F9CFBE
:1003F00085FD0C943702806291110C94370281566E
:100400008A51D8F708959111089581568A5108F4B8
:100410008052855808950F931F93CF93DF93E091F7
:100420004403F0914503238110E000E021FD0EC05C
:100430000FEF1FEFC801DF91CF911F910F9108952A
:100440001995892B11F00FEF1FEFCE01EC01899167
:100450006091440370914503DB011896ED91FC9186
:100460008111EECF8AE01995892B21F3E1CF9927ED
:0804700088270895F894FFCFDE
:100478000000000200000000F100000000004154EC
:100488006D656761323536302055534152543020FE
:10049800746573740D0048656C6C6F20626F7973B6
:0E04A80020616E64206769726C73210D000084
:00000001FF
